:020000040800F2
:1000000000040020D9020008DB020008DB0200081F
:10001000DB020008DB020008DB020008DB0200084C
:10002000DB020008DB020008DB020008F1560008D2
:10003000DB020008DB020008DB020008DB0200082C
:10004000DB020008DB020008DB020008DB0200081C
:10005000DB020008DB02000871A0000841A00008D4
:1000600011A00008E19F0008B19F0008919E0008C0
:10007000619E0008319E0008019E0008D19D000885
:10008000A19D0008719D0008DB020008DB0200084A
:10009000DB020008DB020008DB020008419F0008C9
:1000A000DB020008217C0008DB020008417C00081C
:1000B000017C0008E17B0008517C0008E189000810
:1000C000F1880008DB020008DB020008DB02000800
:1000D000DB020008C17B0008A17B0008DB020008EE
:1000E000C19E0008DB020008DB020008DB020008FA
:1000F000DB020008DB020008DB020008419D00086B
:10010000DB020008DB020008A17C0008DB0200081B
:10011000DB020008DB020008DB020008DB0200084B
:10012000119D0008E19C0008B19C0008819C00081A
:10013000519C0008DB020008DB020008DB0200081B
:10014000DB020008DB020008DB020008C1840008B3
:10015000219C0008F19B0008C19B0008817B0008DE
:10016000DB020008DB020008DB020008DB020008FB
:10017000DB020008DB020008DB020008DB020008EB
:10018000DB020008DB020008DB020008DB020008DB
:10019000DB020008DB020008DB020008DB020008CB
:1001A000DB020008DB020008DB020008DB020008BB
:1001B000DB020008DB020008DB020008DB020008AB
:1001C000DB020008DB020008DB020008DB0200089B
:1001D000DB020008DB020008DB020008DB0200088B
:1002000072B6274880F30888264880F30988264874
:100210004EF60851CEF200010860022080F31488E7
:10022000BFF36F8F0BF0B4F907F0B2FB4FF055300E
:100230001E491B4A91423CBF41F8040BFAE71C4996
:10024000184A91423CBF41F8040BFAE719491A4A8F
:100250001A4B9A423EBF51F8040B42F8040BF8E7E0
:1002600000201749174A91423CBF41F8040BFAE7B6
:100270000BF046F90BF084F9134C144DAC4203DA41
:1002800054F8041B8847F9E708F0AAFC104C114DFC
:10029000AC4203DA54F8041B8847F9E70BF068B95D
:1002A00000040020000800200000000800000020DA
:1002B0000004002008D7000800080020800C00205F
:1002C000800C0020E8540020E0010008E001000854
:1002D000E0010008E001000892E700F000F8FEE706
:1002E0002DE9F04FC1F814D043699D46BDE8F08F69
:1002F000002383F311882846A047002007F060FA06
:10030000FEE707F065FA00DFFEE70000844641EAF9
:10031000000313F003036DD1403A41D351F8043B7D
:1003200040F8043B51F8043B40F8043B51F8043BCF
:1003300040F8043B51F8043B40F8043B51F8043BBF
:1003400040F8043B51F8043B40F8043B51F8043BAF
:1003500040F8043B51F8043B40F8043B51F8043B9F
:1003600040F8043B51F8043B40F8043B51F8043B8F
:1003700040F8043B51F8043B40F8043B51F8043B7F
:1003800040F8043B51F8043B40F8043B51F8043B6F
:1003900040F8043B51F8043B40F8043B403ABDD2DE
:1003A000303211D351F8043B40F8043B51F8043B80
:1003B00040F8043B51F8043B40F8043B51F8043B3F
:1003C00040F8043B103AEDD20C3205D351F8043B0F
:1003D00040F8043B043AF9D2043208D0D2071CBFDB
:1003E00011F8013B00F8013B01D30B880380604604
:1003F000704700BF082A13D38B078DD010F003037A
:100400008AD0C3F10403D21ADB071CBF11F8013BE9
:1004100000F8013B80D331F8023B20F8023B7BE738
:10042000043AD9D3013A11F8013B00F8013BF9D263
:100430000B7803704B7843708B78837060467047FD
:10044000A2EB0300704700BF02780B78012A28BF97
:100450009A42F5D16DE9044540EA0104CDE902670D
:100460006FF0000C4FEA447212B380EA010414F0FA
:10047000070F6AD100F0070420F0070004F003051D
:1004800021F007014FEAC505F0E8042314F0040F3A
:10049000F1E804670CFA05F462EA040266EA04066D
:1004A0000AD063EA0403624667EA0407664603E08B
:1004B000F0E80423F1E8046782FA4CF582EA0604C6
:1004C000A4FA8CF46CBB83FA4CF583EA0705A5FA11
:1004D0008CF595B950E9022351E9026782FA4CF58F
:1004E00082EA0604A4FA8CF483FA4CF583EA070541
:1004F000A5FA8CF52543DBD09CB92DBAB5FA85F465
:1005000024F0070427FA04F1DDE9026723FA04F373
:1005100003F0FF0001F0FF01FDE80445A0EB01003E
:10052000704724BAB4FA84F424F0070426FA04F1DC
:10053000DDE9026722FA04F202F0FF0001F0FF0198
:10054000FDE80445A0EB0100704714F0030F3CD117
:1005500010F0030428D150F8082B51F8083B82FA18
:100560004CF582EA0305A5FA8CF55DB950F8042C28
:1005700051F8043C82FA4CF582EA0305A5FA8CF5A1
:10058000002DE8D02DBAB5FA85F424F0070423FA3B
:1005900004F122FA04F202F0FF0001F0FF01FDE88D
:1005A0000445A0EB010070474FEAC40420F00300AB
:1005B00050F8082B21F0030151F8083B0CFA04F421
:1005C00062EA040263EA0403C9E710F003041AD0E4
:1005D000A1EB040120F00300E40750F8042B06D03F
:1005E0000FD28B785FFAA2F4E41A06D12BB1CB7844
:1005F0005FFAB2F4E41A00D11BB920465DF8104B43
:10060000704701F1040150F8042BCC0721F00301DD
:1006100051F8043B48D824D222F07F4482FA4CF5AA
:1006200094EA1325A5FA8CF50AD165B951F8043B73
:1006300084EA0204B4EB036F0ED150F8042BEBE70D
:100640004FEA132355E035F07F454DD10878FDE89A
:100650000445C0F1000070474FEA126203F0FF0347
:1006600047E002EA1C4482FA4CF594EA1345A5FAE5
:100670008CF50AD165B951F8043B84EA0204B4EB65
:10068000034F0CD150F8042BEBE74FEA134330E053
:1006900015EA1C4528D10B884FEA124229E04FEA9F
:1006A000124203EA1C4324E002F0FF0482FA4CF5F4
:1006B00094EA1365A5FA8CF50AD165B951F8043BA3
:1006C00084EA0204B4EB032F09D150F8042BEBE7C2
:1006D0004FEA13630DE015F0FF0F05D10B684FEAE9
:1006E000122223F07F4304E04FF00000FDE80445B0
:1006F000704712BA1BBA82FA4CF482EA0304A4FAD5
:100700008CF5B5FA85F402FA04F203FA04F34FEA21
:100710001260FDE80445A0EB136070470000000084
:1007200000000000000000000000000000000000C9
:1007300000000000000000000000000000000000B9
:1007400090F800F06DE9024520F007016FF0000C11
:1007500010F0070491F820F040F049804FF00004B9
:100760006FF00700D1E9002391F840F000F1080094
:1007700082FA4CF2A4FA8CF283FA4CF3A2FA8CF3CC
:100780004BBBD1E9022382FA4CF200F10800A4FA33
:100790008CF283FA4CF3A2FA8CF3E3B9D1E9042387
:1007A00082FA4CF200F10800A4FA8CF283FA4CF3BE
:1007B000A2FA8CF37BB9D1E9062301F1200182FA78
:1007C0004CF200F10800A4FA8CF283FA4CF3A2FA7E
:1007D0008CF3002BC6D0002A04BF04301A4612BA8C
:1007E000B2FA82F2FDE8024500EBD2007047D1E98F
:1007F000002304F00305C4F100004FEAC50514F01E
:10080000040F91F840F00CFA05F562EA05021CBFEE
:1008100063EA050362464FF00004A9E753B94AB9F9
:10082000002908BF00281CBF4FF0FF314FF0FF30F8
:1008300000F06CB9ADF1080C6DE904CE00F006F8DB
:10084000DDF804E0DDE9022304B070472DE9F0474C
:10085000089E0D4604468E46002B40F082808A4258
:10086000174646D9B2FA82F24AB1C2F1200105FA1E
:1008700002F320FA01F1974041EA030E94404FEA57
:100880001748230CBEFBF8FCB9B208FB1CEE43EA88
:100890000E430CFB01F098420AD9FB180CF1FF350E
:1008A00080F01681984240F21381ACF1020C3B4477
:1008B0001B1AA4B2B3FBF8F008FB103344EA03445C
:1008C00000FB01F1A14209D93C1900F1FF3380F08E
:1008D0000181A14240F2FE8002383C44641A40EAA1
:1008E0000C4000211EB1D4400023C6E90043BDE8FE
:1008F000F08702B9FFDEB2FA82F2002A4FD1CB1B99
:100900004FEA174E1FFA87F80121B3FBFEFC250CB6
:100910000EFB1C3345EA034508FB0CF3AB4207D939
:100920007D190CF1FF3002D2AB4200F2E780844621
:10093000ED1AA3B2B5FBFEF00EFB105543EA0544D9
:1009400008FB00F8A04507D93C1900F1FF3302D29B
:10095000A04500F2D7801846A4EB080440EA0C40FA
:10096000C0E78B4208D9002E00F0AF800021C6E915
:1009700000050846BDE8F087B3FA83F100294BD1A2
:10098000AB4202D3824200F2B780841A65EB0303C4
:1009900001209E46002EAAD0C6E9004EA7E7C2F16C
:1009A000200C01FA02F3974020FA0CF04FEA174EA0
:1009B00021FA0CFC1843BCFBFEF1050C0EFB11CC1C
:1009C0001FFA87F845EA0C4501FB08F3AB4204FA2D
:1009D00002F409D97D1901F1FF3C80F08B80AB4214
:1009E00040F2888002393D44EB1A85B2B3FBFEF039
:1009F0000EFB103345EA034500FB08F3AB4207D971
:100A00007D1900F1FF3C71D2AB426FD902383D44F1
:100A1000EB1A40EA014178E7C1F1200C8B4022FA41
:100A20000CF71F4320FA0CF405FA01F34FEA174EB6
:100A300025FA0CF51C43230CB5FBFEF91FFA87F8C9
:100A40000EFB195543EA054509FB08FAAA4502FAC7
:100A500001F200FA01F308D97D1909F1FF3047D2FC
:100A6000AA4545D9A9F102093D44A5EB0A05A4B25E
:100A7000B5FBFEF00EFB105544EA054400FB08F8F8
:100A8000A04507D93C1900F1FF352DD2A0452BD93F
:100A900002383C4440EA0940A4EB0804A0FB028968
:100AA0004C45C6464D4619D316D05EB1B3EB0E0287
:100AB00064EB050404FA0CFCCA404CEA0202CC4088
:100AC000C6E900240021BDE8F087314630460EE734
:100AD000AC46EDE6184601E74345E6D2B8EB020E18
:100AE00069EB07050138E0E72846D3E760468FE762
:100AF0008146BAE7614677E708464BE7ACF1020C5E
:100B00003D4415E702383C4426E700BF704700BF6C
:100B1000F0B40346134A43F8042B012200254FF496
:100B2000807700F5157600F10C044360C16400F590
:100B3000AA73027200F1300100F154024561C0E96C
:100B40000344856287630664C0E90822F0BCC0E9FB
:100B50001133C0E90C11C06200658261C361C363D7
:100B6000704700BF18D4000800000000000000001B
:100B7000104A136923F4706313610F4B01289A68BC
:100B800010D142F480629A60DA6822F48062DA60FE
:100B9000094B1A6842F480621A605A6822F4806233
:100BA0005A60704722F480629A60DA6842F4806288
:100BB000DA60EDE700380140003C01400000000031
:100BC000224A02EB80032DE9F043D968D2F8549011
:100BD00080464869D0E90037BB4228D908F10104B2
:100BE000B1F810E009EB043409EB481CDE1BDCF81B
:100BF0001829764528BF764693B2B6EB830F21D8E5
:100C00008568042E2B6823600AD9711F21F0030127
:100C1000043129442B4653F8042F22609942FAD11B
:100C2000036837443544BB42C0E90175DED8D9F8C2
:100C30003438012000FA08F823EA0803C9F83438E8
:100C4000BDE8F0830020BDE8F08300BFD81B002082
:100C500030B4202383F311880B4CD4E9003549428A
:100C6000281A0840821A9A4207D3954205D3626037
:100C7000002383F3118830BC70470020002383F3E6
:100C8000118830BC704700BF501F002000000000DA
:100C9000024AD36843F0C003D3607047001001409C
:100CA000024AD36843F0C003D36070470044004059
:100CB000024AD36843F0C003D36070470014014078
:100CC000202383F31188064A1378012B03D8054BA0
:100CD0004FF4806119830023137083F311887047E8
:100CE000B81D0020000402400000000000000000C9
:100CF00008B5202383F31188084B1B7853B10120DA
:100D0000FFF736FF064A074B13650023536583F34D
:100D1000118808BD0220FFF72BFFF3E7D828002039
:100D2000381C0020411300080000000000000000F3
:100D3000104B10B408245C8300BF0F494FF40042ED
:100D40000A8300BF4A8300BF0A8300BF4A8300BFF3
:100D50001C8300BF0A8300BF4A8300BF002807DD51
:100D600000230A8300BF4A8300BF01339842F8D1B1
:100D700010BC704700040240000002400000000068
:100D80001E4B012130B42022197082F311881C48B7
:100D90004468C26864680925D56251610325002151
:100DA0005162057011611CB1D16841F00101D1603F
:100DB00085211160002282F31188124902E01A781D
:100DC000012A02D10A699405F9D50E4902E01A7880
:100DD000012A02D10A699205F9D4202383F31188EC
:100DE000C3680022022101701A601A61D96821F0DB
:100DF000FF01D96082F3118830BC7047800C00205D
:100E0000D00C0020000402400000000000000000A0
:100E1000014B00221A707047800C00200000000077
:100E200090F84420034602F01F00012803D193F8F4
:100E300045100B291BD002F06002202A01D00020AF
:100E4000704793F84520212A09D81F2AF7D90A4A62
:100E50009A6307210022C3E90F1201207047222A5A
:100E6000EDD10022C3E90E221A640120704700224E
:100E7000C3E90E221A647047040800200000000035
:100E8000022906D0032906D00129074818BF0020EF
:100E9000704706487047032A03D8054800EBC20094
:100EA00070470020704700BF70D300081CD30008B3
:100EB000F8D300080000000000000000000000005F
:100EC000704700BF000000000000000000000000AC
:100ED000F0B4056800246A1E05F10A062E2704E016
:100EE00008190134437296420FD0104612F8013FA0
:100EF000202BA0F10700F6D0052B08BFE523A84260
:100F0000EED1081901344772EAE70C4400236372FA
:100F1000EB7A0B72E88B6A7F2B7F42EA002243EA6E
:100F200002230B60EA7DAB7D43EA0223CB806A7E1D
:100F30002B7E43EA0223F0BC8B8070470000000048
:100F400001380A4411F8013B00F8013F9142F9D100
:100F5000704700BF0000000000000000000000001B
:100F6000016861B10A4601E03A2B05D012F8013B55
:100F7000202BF9D8002070478B1C9A4202D04FF0EA
:100F8000FF3070470B78302BF9D10260002070479A
:100F9000002070470000000000000000000000007A
:100FA00028B9044B1879053818BF01207047012073
:100FB000704700BF180D0020000000000000000076
:100FC00080B1026892B108B513783BB18088D388AC
:100FD00098420ED0092000220A6008BD1A46092056
:100FE0000A6008BD02460A600920704709200A60AD
:100FF00070475078FFF7D4FF10F00100ECD0E9E71C
:10100000144BC35C03F00303012B04BF00F1200366
:10101000D8B2A0F1300218BF0346072A12D90A2914
:1010200008D0102902D04FF0FF307047A0F16102C4
:10103000052A0AD938280BD0392814BF4FF0FF30C1
:1010400009207047D8B230387047D8B25738704747
:1010500008207047FDD500080000000000000000D7
:10106000202383F311880D4B5B6813F4006302D1D6
:1010700083F311887047EFF30983203B4FF08072B0
:10108000DA6183F30988064A1168526989689268AF
:1010900091428CBF034A044A9A61704700ED00E018
:1010A000BC1D002003030008060300080000000028
:1010B000084A10B4D2E900344942201A0840984244
:1010C00004D3844202D310BC50607047002010BC8F
:1010D000704700BF501F002000000000000000000B
:1010E0000E4A0F4B52681B6F816830B4D31AD0E997
:1010F0000445C2685B1A01324168C260E4180268A4
:10110000836045F100058B4288BF43609342C0E98C
:10111000044538BF036030BC704700BF001000E0DA
:10112000BC1D0020000000000000000000000000C6
:10113000014B5B6883607047001000E00000000016
:10114000202383F3118890F82030072B0DD8DFE897
:1011500003F0270C0C2308040C08426A936801333F
:101160009360D0E9003213605A6010B400224FF04F
:10117000FF3481680C4B446280F820201B689A6819
:101180008A42FBD25A680021C0E9003210605860E0
:1011900081F3118810BC7047436A00221A60E4E7AB
:1011A000002383F311887047BC1D0020000000005D
:1011B00000228168064B80F820201B689A688A42CA
:1011C000FBD25A68C0E9003210605860704700BF17
:1011D000BC1D002000000000000000000000000016
:1011E00038B50446006884420AD06FF001050368F0
:1011F00023605C604562FFF7DBFF2068A042F6D108
:1012000038BD00BF0000000000000000000000002A
:101210000346006820B100221A604162FFF7C8BF90
:10122000704700BF00000000000000000000000048
:101230001A4B9A69824230B40FD0D0E900210A607B
:101240000268183300249A425160C46003D0816858
:1012500093680B44936030BC70471846116840F89F
:10126000181F002481424860D46013D095688A68B2
:101270000B4C5B6A15448D60626AD11A8D42EAD9C3
:101280009A1A2A44012A98BF8D1C054A2B4453639D
:1012900030BC7047024BDC60DDE700BFBC1D0020A6
:1012A000000C0040000000000000000000000000F2
:1012B000F0B41E4D1E4E2F46022957F8184F38BF66
:1012C0000221BC42C0E90323736A22D06A6A9B1AD6
:1012D000C91816D2A3688B4203D917E02468C91A2B
:1012E000A3688B42FAD36368C0E90043186060606A
:1012F0008160A3684FF0FF32591AA1602A62F0BCE6
:101300007047A2682468891AA368EAE70A447263EE
:10131000E7E76B62CF1800220223C5E90600C0E9A7
:101320000044816077633261F360E8E7BC1D002010
:10133000000C004000000000000000000000000061
:1013400038B5274B1A78002A42D026490A7800205F
:1013500001320A701870202383F31188224B996898
:10136000DA6841EA0200400516D52048204C0069A1
:10137000186820F480601860586820F48060586015
:10138000002521F4806122F480624FF4806099602E
:101390002565DA60656558611648C3680BB1FFF7CB
:1013A00047FF1448144A00234FF4FA71FFF780FFF7
:1013B0001248C3680BB1FFF73BFF114A0F480023E7
:1013C00040F6B831FFF774FF002383F3118838BD6E
:1013D0000C4A01204FF4806118705183BBE700BFB5
:1013E000D8280020B81D0020003C014000380140F2
:1013F000381C0020284A0020F10C00083C4A00203C
:10140000C10C0008000402400000000000000000C1
:10141000FEE700BF00000000000000000000000028
:10142000034B186980F48070C0F30020704700BF40
:10143000000002400000000000000000000000006A
:10144000836970B51A69DC681440E2B2D243A6071A
:1014500005461A6103D543681B6903B198476007C5
:1014600004D56B689B690BB128469847210704D5C2
:101470006B681B6A0BB128469847E20604D56B6877
:101480009B6A0BB128469847E30706D56B689B68B3
:101490001BB12846BDE87040184770BD0000000031
:1014A00011F00C0F26D170B5C56A426B2B68196814
:1014B00021F01F0119601C6814F00104FBD16E7A41
:1014C00069683D23B3400B60536823F48053536035
:1014D000136823F480631360136843F4007313608C
:1014E000202383F311881C302146FFF791FE84F3FB
:1014F000118870BD72B6024B024A9A62FEE700BFC5
:10150000BC1D0020FCBD0008000000000000000021
:1015100011F00C0F00D1704772B6024B024A9A626A
:10152000FEE700BFBC1D0020FCBD0008000000005D
:1015300011F00C0F38B54CD10D4641680B780446BC
:10154000002B30D1456A2A68136823F01F0313600B
:101550001368D807FCD46A7A206A6D683D239340EB
:1015600002682B60136823F01F0313601368DB0706
:10157000FCD4457A4A6841683D23AB400B606AB3AE
:1015800004232370204690472378042B26D0202361
:1015900083F31188002104F10800FFF739FE0023CE
:1015A00083F3118838BDEB0603D54B68002BF9D0C7
:1015B0009847AD06F6D563685B68002BF2D004222D
:1015C0002270204698472378042BEBD10323237005
:1015D00038BD72B6034B044A9A62FEE702232370B9
:1015E000D5E700BFBC1D0020FCBD000800000000C6
:1015F00011F00C0F15D1D0E90C100A68136823F014
:101600001F0310B413601368DB07FCD44C7A4A68DC
:101610003D23A3401360436810BC43F40073436050
:10162000704772B6014B024A9A62FEE7BC1D002069
:10163000FCBD0008000000000000000000000000E9
:101640002DE9F04F02F00309C2F34115CC46C2F375
:101650008007C2F3C1064FEAD21E00244FF00F0BE1
:10166000A84616E0D0F800A003EA0A0343EA0C03F8
:10167000072C036042D8036A23EA0202154305627D
:10168000490839D07F00B6004FEA88084FEA8C0C31
:101690000134CB07F4D543680122A24023EA0203B8
:1016A0003B43436082680325630005FA03F322EAA3
:1016B000030232438260C56804F0070225EA03058D
:1016C00045EA08059200B9F1020FC5606FEA03030D
:1016D0000EFA02F50BFA02F2C4D1072C14D8D0F896
:1016E00020A02AEA0202154305620268134043EA79
:1016F0000C0349080360C5D1BDE8F08F436A23EAB3
:10170000020215434562BBE7D0F824A02AEA020290
:1017100015434562E9E700BF00000000000000003B
:1017200008B5034809F0DCFB024B00221A7008BD23
:10173000180D0020A424002000000000000000007C
:101740000EB42DE9F04F036888B082461B6912ADD4
:1017500007959847DAF800108146CC68C1B2504628
:10176000A04719F1020F00F0FF81A846AB4CAC4D29
:1017700057464FF0000B2521C2466B5C13F0080062
:1017800040F0D480252911D0494500F08180BA4627
:101790005FFA89F9DAF8003049465B6950469847A4
:1017A000584608B0BDE8F04F03B070472378252BAA
:1017B0000AD1B9F1250FEAD13B6838461B69984731
:1017C000A61C617881466BE02A2B00F0C4815AF890
:1017D000042B0192661CE95C4C0740F1CA8100248D
:1017E000A3F1300216F8013BE95C04EB84044807DE
:1017F00002EB4404F4D4002C08BF4FF0FF3403F094
:10180000DF004C2800F0A28001F00301A1F10102E9
:10181000B2FA82F25209CDE90262443B342B00F263
:101820009C80DFE813F064019A009A009A009A0005
:1018300039019A009A009A009A009A001E01A100AC
:101840009A009A009A009A0003019A009A00A10057
:101850009A009A009A009A009A009A009A009A00B8
:101860009A009A007D0164019A009A009A009A00F9
:1018700039019A009A009A009A009A001E01A1006C
:101880009A009A004E009A0003019A009A00A10063
:101890003B6838461B6998472646814616F8011B67
:1018A00019F1020F00F0BE8000293FF470AF3446FA
:1018B00063E73B681B69984710F1020F81463FF4CC
:1018C0006FAF15F8093013F008033846F1D1002C3A
:1018D000C8BF1E4640F39681019B38460BB103F802
:1018E00006903B681B699847814619F1020FC1B207
:1018F00006F1010638463FF453AF3B68DB68984772
:10190000B44200F0828115F809301807E4D5019B34
:1019100033B14FF000029A55019B4FF000021A5567
:10192000029E0BF1010B16F8011BBDE715F80930FB
:101930001B0707D53B6838461B6998472B5C1E0779
:10194000F8D48146264616F8011BA9E73246012342
:10195000039312F8013B02925FE738685FFA89F15E
:101960004369384698471BE715F80930180707D52B
:101970003B6838461B6998472B5C1907F8D48146A9
:10198000B9F12B0F00F00881B9F12D0F00F067813C
:1019900001230493B9F1300F0DD1661E00F08C8144
:1019A0003B6838461B69984720F02003582B814636
:1019B00000F030813446002305934FF010085FFAA1
:1019C00089F941464846FFF71BFB411C034600F0DE
:1019D0007181023C00263A683846126906FB0836D7
:1019E0009047631C81464146C0B204F1FF3404D0E5
:1019F000FFF706FB421C0346EDD1049B03B9764278
:101A0000019B2BB1039A002A40F0A980019B1E6024
:101A1000029E0BF1010B16F8011B41E709BE0008FD
:101A2000FDD50008BA464FF0FE09B3E615F80930B7
:101A30001E0707D53B6838461B6998472B5C1A0779
:101A4000F8D48146B9F12B0F00F02281B9F12D0FA6
:101A500000F0BC8001260023CDE904634FF00A08A2
:101A6000ADE715F80930190707D53B6838461B69FB
:101A700098472B5C1B07F8D48146B9F12B0F00F077
:101A80001081B9F12D0F00F0AF8001200023CDE9C6
:101A900004034FF0080892E715F809301A0707D534
:101AA0003B6838461B6998472B5C1B07F8D4814676
:101AB000B9F12B0F65D0B9F12D0F00F0C5800123CE
:101AC0000493B9F1300F57D1661E00F0F5803B68E2
:101AD00038461B69984720F02003582B814600F0B8
:101AE000A6800123344605934FF0080867E715F8F0
:101AF00009301B0707D53B6838461B6998472B5CA4
:101B00001E07F8D48146B9F12B0F00F0B380B9F16C
:101B10002D0F4CD00123CDE904334FF00A084EE7D6
:101B2000002C7FF7FDAE019BB8461C441E461F46A5
:101B300040460FB186F80090D8F800301B699847EE
:101B400010F1020F814606F101063FF429AEB442BE
:101B5000EED14746E4E663780190A61C3BE6059A81
:101B6000002A3FF453AF52E74FF0FE094FF0000B4D
:101B700010E64FF0FF3442E6012305934FF00A08C8
:101B80001DE7013C3FF40CAE3B6838461B699847A3
:101B900001238146049394E7013C3FF401AE3B6886
:101BA00038461B699847012381460493F2E6013CBD
:101BB0003FF4F6AD3B6838461B69984701238146E0
:101BC0000020CDE904034FF00A08F8E6013C3FF499
:101BD000E7AD3B6838461B6998470023049381466C
:101BE00005934FF00A08EAE6013C3FF4D9AD3B68A3
:101BF00038461B69984700230493814605934FF0AC
:101C00000808DCE6611C3FF48BAE019B002B7FF4DF
:101C100083AE85E6023C3FF4C3AD3B6838461B69A2
:101C200098470023814605934FF01008C7E6023C11
:101C30003FF4B6AD3B6838461B699847012381469F
:101C400005934FF01008BAE6013C3FF4A9AD3B689C
:101C500038461B69984700238146049331E7013CCD
:101C60003FF49EAD3B6838461B6998470023814688
:101C700004938FE6013C3FF493AD3B6838461B6903
:101C8000984701230493814605934FF00A0896E68E
:101C9000013C3FF485AD3B6838461B699847814657
:101CA000D8E6013C3FF47CAD3B6838461B69984759
:101CB0008146EAE6BA466DE50BF1010B70E500BF1F
:101CC0000EB42DE9F04F86B00FAB53F8044B0293DE
:101CD000254615F8011B002900F03B82074699466E
:101CE0004FF000080CE03B683846DB6808F101085B
:101CF0002C469847254615F8011B002900F0BE80A8
:101D00002529F0D163782D2B04BFA51C01202B7849
:101D100018BF00202B2B03BF6B784FF0010E7544CA
:101D20004FF0000E302B05BF1E466B782026013584
:101D30002A2B40F0AC8059F8041B6B78AC1C2E2B7E
:101D400000F03081002203F0DF054C2D00F0B2805E
:101D5000A3F1440CBCF1340F00F29881DFE81CF0D1
:101D60005E0196019601960196015E01960196012B
:101D70009601960196019A01350096019601960109
:101D80009601940096019601350096019601960100
:101D900096019601960196019601960196014D01D4
:101DA0005E0196019601960196015E0196019601EB
:101DB0009601960196019A013500960196012D0132
:101DC000960194009601960135004FF0100E59F8D7
:101DD000045B0DF1170300E06346AA46B5FBFEF570
:101DE0000EFB15AB0BF13002392AC8BF0BF13702DD
:101DF000D2B2F24503F1FF3C03F8012CECD20DF115
:101E00000C0A0DF11705A5EB0C05D6460DF1170CC4
:101E100001E013F8012B0EF8012B6345F9D1491BA2
:101E2000013D21EAE17B20B90029CBF1000B00F351
:101E30004581002D0FDB6B1C534401941C463A680E
:101E40001AF8011BD26838469047A245F7D108F12D
:101E50000108019CA844BBF1000F3FF44BAF5D4665
:101E60003B683146DB6838469847013DF8D1254646
:101E7000D84415F8011B00297FF442AF404606B054
:101E8000BDE8F04F03B070474FF00A0E9FE76C1C9F
:101E9000002BF3D00021A3F13002D2B2092A01EBCA
:101EA00081053FF64CAF14F8013B02EB4501002BD6
:101EB000F1D1E3E714F8013B002BDFD0A3F1440597
:101EC000342D00F2E3800FF2080C5CF825F000BF1F
:101ED0001D2000088D2000088D2000088D2000089E
:101EE0008D2000081D2000088D2000088D2000088E
:101EF0008D2000088D2000088D2000089520000806
:101F0000CB1D00088D2000088D2000088D200008C2
:101F10008D200008891E00088D2000088D200008F3
:101F2000CB1D00088D2000088D2000088D200008A2
:101F30008D2000088D2000088D2000088D200008CD
:101F40008D2000088D2000088D200008FB1F000850
:101F50001D2000088D2000088D2000088D2000081D
:101F60008D2000081D2000088D2000088D2000080D
:101F70008D2000088D2000088D2000089520000885
:101F8000CB1D00088D2000088D200008BB1F000815
:101F90008D200008891E00088D2000088D20000873
:101FA000CB1D00082378002B3FF468AF2A2B74D197
:101FB000637859F8042B0234C5E659F804ABBAF13A
:101FC000000F00F0BC809AF80030002A40F0AA8090
:101FD000002B00F0AB8047F6FE72554601E0D3427D
:101FE00005D415F8016FAAEB0503002EF7D1A5EB78
:101FF0000A05491B2026013D13E759F8043B8DF8DB
:102000000C300139202621EAE17B18B90029CBF1F7
:10201000000B72DC00250DF10C0A0CE759F804CB1B
:10202000BCF1000F5FDBBEF1000F00F08E802B23B0
:102030008DF80C300DF10D050DF10C0A05F10B03B7
:1020400001931A46474BA3FB0CE3DB0803EB830B1E
:102050009E46ACEB4B033033E346DBB2BBF1090FDA
:1020600002F8013DF446EDDC9E46019BA3EB020C19
:10207000AC44734601E012F8013F05F8013B6545A9
:10208000F9D1A5EB0A05491B013DCAE68DF80C30D4
:102090000139B8E74FF0080E99E601340022A3F1A8
:1020A0003005EDB2092D02EB820C3FF64CAE14F870
:1020B000013B05EB4C02002BF1D1DFE6CDF804B07B
:1020C0009AF800102D2921D03B683146DB6838464C
:1020D00098471BF1010BF7D1019B002DA8EB0308DA
:1020E000BFF6A9AE06E62D23CCF1000C8DF80C301E
:1020F0000DF10D050DF10C0AA0E79DF80C10CDF8BF
:1021000004B02D290DF10C0A0546DDD1302EDBD1AE
:102110003A683846D26890470AF1010A08F1010886
:10212000013DD1E713B1013A7FF557AF21EAE17BD9
:1021300018B90029CBF1000B0DDC20268BE6DFF867
:1021400028A0002A3FF447AFEDE70DF10C0A5546F1
:1021500074E7884692E6CDF804B020264FF0FF35AC
:10216000AEE700BFCDCCCCCC10BE00080000000014
:1021700038B51A4D0446294600231E22FFF7A0FD5C
:102180001749204600231E22FFF79AFD00231E2236
:1021900029462046FFF794FD12492046FFF790FD9F
:1021A00011492046FFF78CFD10492046FFF788FDB6
:1021B0000F492046FFF784FD0E492046FFF780FDBA
:1021C0000D492046FFF77CFD0C492046FFF778FDBE
:1021D00020460B49BDE83840FFF772BD18BE000825
:1021E00044BE000870BE000890BE0008B0BE0008E3
:1021F000E0BE00080CBF000838BF000870BF000830
:10220000F4C2000800000000000000000000000010
:1022100038B50D460A490446FFF752FD012D05DD8C
:1022200020460849BDE83840FFF74ABD0649204628
:10223000FFF746FD20460349BDE83840FFF740BDA3
:10224000A4BF0008C8BF0008BCBF00080000000011
:102250002DE9F04105460068A0B10F4616469846A4
:1022600002E055F8080F68B13146FEF7EDF8044674
:102270000028F6D138466B68069A414698472046B2
:10228000BDE8F0810120BDE8F08100BF0000000042
:1022900000B583B0034601AA12488DF8043001212D
:1022A00008F05EFC202383F311880F4B1B783BB1B1
:1022B0000E4A13699905FCD50C4A13699B05FCD499
:1022C0000A4B20225A8300BF00BF02225A8300BF5C
:1022D00000BF1A8300BF002383F3118803B05DF8A9
:1022E00004FB00BF781B0020800C0020000402408B
:1022F00000B51C4B4FF400425A8383B0202383F374
:102300001188194B1B7853B102F1804202F5C23299
:1023100013699905FCD5154A13699B05FCD411492D
:10232000124B4FF40040202208835A8300BF00BFA5
:1023300004225A8300BFA1F500610220488300BF38
:1023400008831A8300BF002383F311880848012102
:102350000DF1070208F09CFB9DF8070003B05DF843
:1023600004FB00BF00080240800C00200004024073
:10237000781B0020000000000000000000000000AA
:1023800010B5202382B083F311881E4CD4F88C241E
:1023900013681978042902D1217A022904D0002374
:1023A00083F3118802B010BD11791A8901238B4083
:1023B0001342F4D1D4E915329342F0D1226D002AB0
:1023C000EDD0E26E002AEAD0043AD21AE7D01A60C1
:1023D000D4E9171003448B42226D636524BFA36EBA
:1023E0006365013A002301A907482265E36608F006
:1023F000F7FF0246D4F88C04019B0179006808F0CD
:1024000037FACCE7E81600202C1700200000000067
:1024100001292DE9F041044612D02149FFF750FC73
:10242000204B21491A882046FFF74AFC1F492046C5
:10243000FFF746FC20461E49BDE8F041FFF740BCCF
:1024400010681C4E1C4FDFF85C8009F0A3F8B268DE
:10245000A8F8000083B202FB03F2642505FB02F238
:10246000A7FB020215492046520BFFF729FCB8F8DA
:102470000020B36803FB02F305FB03F5A7FB05355A
:102480006D0B202383F31188F368B26943F00103D5
:10249000F3605563002383F31188BDE8F08100BF2A
:1024A000D0BF00080008002004C000081CC00008BD
:1024B00050C00008840D00205917B7D174C000081F
:1024C000012938B50FD01C490446FFF7F9FB1B4B17
:1024D0001B491A882046FFF7F3FB20461949BDE83F
:1024E0003840FFF7EDBB106809F054F8134B202477
:1024F000188080B284F31188134A93699060013880
:10250000D862002080F31188104B91681B88104D11
:1025100001FB03F1642303FB01F3A5FB03135B0B36
:1025200084F31188D168946941F00101D16063633B
:1025300080F3118838BD00BF94C000080208002055
:10254000B8C00008D0C00008840D0020000800209A
:102550005917B7D100000000000000000000000083
:1025600070B50D46B8B1044628601249204609F0FE
:10257000D9F9215C222904EB000612D00D4930461E
:1025800009F0B4F998B1421C00232A600370337833
:1025900023B1304670BD0C68002CE6D100263046D1
:1025A00070BD0136304609F0DBF80028EBD1286019
:1025B000EDE700BF00C100080000000000000000BF
:1025C0002DE9F04F0E46C5B0584915460446FFF7B1
:1025D00077FB022E06D05649204645B0BDE8F04FA5
:1025E000FFF76EBB4FF48072002104A809F068F871
:1025F00000221146686809F057F800220346114688
:102600002868019309F050F8B0F5807F054600F383
:102610008580019E474932462046FFF751FB3046F0
:10262000FEF786FBFEF7ACFB002D74D004ABDFF8A1
:10263000188103EB05091E464FF40047FFF758FECB
:1026400006F8010BA8F8187000BFA8F81A7000BFB0
:102650004E45F3D1002D5EDD37499DF810208DF8F1
:10266000082020460DF10F078B460126FFF728FBB7
:10267000DFF8D890DFF8D8807B190093B24604AD1C
:10268000F30615D0009B9D4245D002AB15F8012FF3
:1026900003F80A2059462046FFF712FB731C5A071D
:1026A000DEB21DD00AF1010AF3065FFA8AFAE9D117
:1026B00004ABC3F10102019B20491A442A4420467D
:1026C000FFF7FEFA009B9D4225D002AB15F8012FC3
:1026D00003F80A2059462046FFF7F2FA0126E1E7FF
:1026E0000DF1070A03E0FFF7EBFABA450CD01AF830
:1026F000012FA2F120035F2B41462046F3D9494622
:10270000FFF7DEFABA45F2D10D492046FFF7D8FAB5
:102710004FF0000AB4E745B0BDE8F08F0949204604
:1027200045B0BDE8F04FFFF7CBBA00BF04C10008C9
:102730002CC1000864C1000878C1000888C10008E5
:10274000F4C2000848C100080000024084C100082B
:1027500080C1000800000000000000000000000030
:102760002DE9F0410D46C0B0314914460646FFF749
:10277000A7FA032D06D02F49304640B0BDE8F041FE
:10278000FFF79EBA00221146206808F08DFF002254
:1027900011460546606808F087FF00228046114612
:1027A000A06808F081FFB5F5807F07462EDC22493E
:1027B0002B4642463046FFF783FA002D2DDD6C464E
:1027C000FBB22246611902F8013B8A42FBD1404626
:1027D000FEF7AEFAFEF7D4FA013D0135DFF864806A
:1027E00025444FF4004714F8010BFFF751FDA8F8FA
:1027F000187000BFA8F81A7000BFAC42F3D10F499F
:10280000304640B0BDE8F041FFF75ABA0C493046B7
:1028100040B0BDE8F041FFF753BA4046FEF788FAF2
:10282000FEF7AEFA002DEAD0013D6C46D5E700BFB9
:102830009CC10008C4C10008E8C100080CC200081F
:1028400048C1000800000240000000000000000035
:1028500070B50E46144915460446FFF731FA022EAC
:1028600005D020461149BDE87040FFF729BA002283
:102870001146286808F018FF0022114606466868CD
:1028800008F012FFC5B23046FEF752FAFEF778FAAA
:102890002846FFF7FDFC33462A4620460449BDE89A
:1028A0007040FFF70DBA00BF14C2000830C2000824
:1028B0004CC2000800000000000000000000000002
:1028C00070B50D46104916460446FFF7F9F9012D7B
:1028D00005D020460D49BDE87040FFF7F1B9002250
:1028E0001146306808F0E0FE0546FEF721FAFEF7D3
:1028F00047FAFFF7FDFC2A46034605492046BDE896
:102900007040FFF7DDB900BF68C2000884C200084C
:102910009CC2000800000000000000000000000051
:10292000012902D00849FFF7CBB9134610B50022A0
:1029300004461146186808F0B7FE044902462046CE
:10294000BDE81040FFF7BCB9B4C20008C8C2000817
:1029500010B5114984B00446FFF7B2F90F4920467B
:1029600001AAFEF7EDFE012805D00D492046FFF72C
:10297000A7F904B010BD0022114601A808F094FE8A
:1029800001AA83B207492046FFF79AF9064907488A
:10299000FFF796F904B010BDE0C2000808BE0008B9
:1029A000F8C2000810C300083CC30008E816002065
:1029B00038B9F8B5174E1D463379052B03D00320DF
:1029C000F8BD042070470C463046114608F028FC3C
:1029D00060B96DB1374601E0013D09D02146384666
:1029E00008F0DEFB04F500740028F5D00120F8BDE6
:1029F0003379072BFAD1F36A074A1868022108F0E5
:102A0000AFF8F36A186808F00BF90523337100205A
:102A1000F8BD00BF180D002008D30008000000001A
:102A200070B500F13406026B04463146407801234C
:102A3000FFF7BEFF60B9216B636AE269E070CB1AF1
:102A40009342054602D2A378022B04D0284670BDDB
:102A50000125284670BD0A44607831460123FFF7FE
:102A6000A7FFF3E7000000000000000000000000E6
:102A7000F8B5C37805460E464BBBAB69B11E023BA9
:102A800099422AD26E89EB6A01FB063605F13407BA
:102A90002E633B4605F50D71002203F8012B8B4296
:102AA000FBD16889044670B1002403E068890134D1
:102AB000A04208D96878012332193946FFF778FF18
:102AC0000028F3D06889201A18BF0120F8BDFFF74D
:102AD000A7FF0028D1D00120F8BD0026D6E700BF0F
:102AE00070B5C37804463BB92378032B0BD06078CC
:102AF000003818BF012070BDFFF792FF0028FAD1FF
:102B00002378032BF3D12379012BF0D104F1340185
:102B10000B4604F50D72002503F8015B9342FBD1CF
:102B2000D4E90330060A84F81C0284F81D62060CFE
:102B3000000E226A84F81E6284F81F021E0A180C16
:102B400084F820321B0E84F8216284F82202552674
:102B5000AA2084F823325223013284F8326284F8A6
:102B600033026126412084F8343084F835307223F2
:102B700084F8370084F81A0284F8183284F819327D
:102B80006078226384F8366084F81B620123FFF7C3
:102B90000FFF2571ABE700BF000000000000000040
:102BA000E0B9F8B5124F1D463B79052B01D0032043
:102BB000F8BD0C463846114608F0C2FB60B97DB13D
:102BC0003E4601E0013D0BD02146304608F088FB2F
:102BD00004F500740028F5D00120F8BD04207047EA
:102BE0003B79062BF8D1BDE8F840014808F0C0BA9F
:102BF000180D002000000000000000000000000090
:102C000038B5C37804460D466BB92A46607801236F
:102C100004F13401FFF7C4FF00281CBF4FF0FF355B
:102C20000120256338BDFFF7FBFE0028EDD038BD3D
:102C300001290ED9F8B5836999420C46054606D29A
:102C40000378022B46D0032B2CD0012B03D001207C
:102C5000F8BD01207047436A026B01EB510703EB9B
:102C60005721914205D0FFF7CBFF00283BD16B6A7B
:102C70002A6BC7F308000137284403EB5721914220
:102C800090F8346003D02846FFF7BAFF58BBC7F36B
:102C900008073D44E30795F8340046EA00202FD5A5
:102CA0000009F8BD416A036B01EBD411994202D0CF
:102CB000FFF7A6FFB8B9A40004F4FE7434352A194E
:102CC000285D5188537843EA012340EA032020F02D
:102CD0007040F8BD416A036B01EB1421994205D0A5
:102CE000FFF78EFF10B14FF0FF30F8BD640004F421
:102CF000FF7434352B19285D5B7840EA0320F8BD5A
:102D0000C0F30B00F8BD00BF000000000000000091
:102D1000F8B50D468168076805610646A9B93B7894
:102D2000022B0ED83B89B3EB551F2AD9BA6AB26180
:102D3000716132B307F134032B44C6E90623002046
:102D4000F8BDBB6A002BEDD019467B89B5EB432F4C
:102D50004FEA432417D3384607E0012811D9BA694E
:102D600082420ED9AC420FD83068FFF761FF431C96
:102D70000146A5EB0405F0D10120F8BD0023C6E90A
:102D800005130220F8BDBA69023A8B1E9342F5D2B0
:102D90007A89F86A03FB0202B261C9E70000000009
:102DA0002DE9F8430378022B04460D46164606D05B
:102DB000032B52D0012B1BD00220BDE8F883416ABF
:102DC000036B01EB1521994203D0FFF719FF00288F
:102DD000F3D16D0004F1340305F4FF755A195E5503
:102DE000C6F3072101235170E3700020BDE8F8838A
:102DF000416A036B05EB550701EB5721994203D05C
:102E0000FFF7FEFE0028D8D1EB0707F1010804F117
:102E10003409C7F3080743D519F8073003F00F0347
:102E200043EA061309F80730616A236B01EB582166
:102E300001229942E27004D02046FFF7E1FE00280B
:102E4000BBD1C8F30808C844C6F30712012388F8A9
:102E50000020E3700020BDE8F883416A036B01EBBA
:102E6000D511994203D0FFF7CBFE0028A5D1AD00C4
:102E700005F4FE7504F13401481926F070424388C8
:102E80001B0403F0704313434B551F0A1E0C012211
:102E90001B0E47708670C370E2700020BDE8F88397
:102EA00009F80760616A236B01EB582101229942FE
:102EB000E27005D02046FFF7A3FE00287FF47DAF27
:102EC000C8F30808C844C6F3032298F8001021F09C
:102ED0000F063243BAE700BF000000000000000008
:102EE0000129F8B5076823D9BB6999420C461FD25E
:102EF000064638462146FFF79BFE0546214600223E
:102F00003846F5B1012D13D06B1C1CD0012C0FD904
:102F1000BB699C420CD2FFF743FF50B9BA693B69C9
:102F2000911E8B4206D395420BD230682C46E1E7C6
:102F30000220F8BD3979013341F001013B6139715B
:102F4000F1E70020F8BD0120F8BD00BF000000003F
:102F50002DE9F041076806468846002951D1FD68F1
:102F6000002D46D0BB69AB4298BF01253B69002BC1
:102F700043D0BB692C4606E0012868D001306FD0F1
:102F8000AC423AD0BB6901349C4202D3012D34D902
:102F9000022430682146FFF74BFE0028ECD1012CBB
:102FA00055D9BB69A34252D94FF0FF32214638466A
:102FB000FFF7F6FE002848D1B8F1000F0CD0B8F1A9
:102FC000010F44D9BB69984541D241462246384653
:102FD000FFF7E6FE002838D1BB693A69FC60023B86
:102FE0009A4201D8013A3A613B7943F001033B71BF
:102FF00004E03B690125002BBBD100242046BDE83D
:10300000F0813846FFF714FE012804461FD9421C00
:1030100026D0BB698342F1D83A69002AEDD008F185
:103020000104A34298BF022430682146FFF700FE46
:1030300001280CD0431C13D068B1FD68BB69012D79
:103040000CD9AB4298BF454694E7012808D001242B
:103050002046BDE8F081002CA3D1BB69454689E735
:103060004FF0FF342046BDE8F08100BF00000000B3
:103070002DE9F04705692035B5F5001F044604D356
:103080000023A3610420BDE8F0878369002B4FD0A3
:10309000C5F308080668B8F1000F37D10F4641693B
:1030A00001338361002938D07389013B13EA552924
:1030B0002CD13046FFF7BCFD0128824634D9B0F14F
:1030C000FF3F2FD0B369834212D8002FD8D0616957
:1030D0002046FFF73DFF824640B3012824D0B0F1DF
:1030E000FF3F1FD001463046FFF7C2FCD0B9B3699D
:1030F000C4F814A0023BAAF1020A9A4504D2B6F819
:103100000A90F36A0AFB0939C4F818903436464429
:10311000E66125610020BDE8F0873389B3EB551FD8
:10312000F4D8ADE70120AEE70220ACE70720AAE71C
:103130000420A8E7000000000000000000000000DC
:1031400070B5002106680446FFF7E2FD054638B178
:10315000042D08BF0725284670BDFFF789FF90B9E9
:10316000A169336B9942304602D0FFF749FD50B94F
:10317000E3691B78E52B04D001212046002BECD11C
:103180001D46284670BD0546E2E700BF000000006E
:1031900070B582B001A90446FDF712FF00283FD1A7
:1031A000237C5A0636D51B063CD40198216A036B52
:1031B000994203D0FFF724FD90BB0198636ADA7A45
:1031C00042F02002DA72A26821689A76C2F30725DB
:1031D000DD760978032903D1120C110A1A75597585
:1031E000E2681A77110A150C120E59779D770021A3
:1031F000DA773A26012257259975D9759974D974C9
:103200001E765D76C270FFF76BFC237C23F04003D3
:10321000237428B901A92046FDF7D2FE00B9206029
:1032200002B070BD019BE269587804F128010123C6
:10323000FFF7BEFB20B9237C03F07F032374B4E7C0
:103240000120EDE700000000000000000000000089
:103250004FF0FF330022994210B50446C270036359
:1032600003D0FFF7CDFC002839D194F8331294F83D
:1032700032324AF6552243EA012393422BD194F885
:103280003430EB2B05D01833DBB2012B01D90220EF
:1032900010BD94F86A30462B07D194F86B30412B5F
:1032A00003D194F86C30542B17D094F886300D4924
:1032B00004F18702463B8B34002BE8D112F8013B26
:1032C00011F8010BA242A3EB0003F5D1002B14BFB0
:1032D0000220002010BD032010BD002010BD0420DE
:1032E00010BD00BF45C30008000000000000000042
:1032F0002DE9F041002384B00B600F461546FDF721
:103300002FFE061EC0F2F380C74B53F82640002C58
:1033100000F0FB803C60237805F0FE0583B1607807
:10332000FDF73EFEC7070BD4002D00F0D78010F04C
:10333000040500F0D3800A25284604B0BDE8F081DA
:10334000F0B2002360702370FDF72AFEC60700F17B
:10335000C9800DB14007EED400212046FFF778FF69
:10336000022800F09C80042800F0C680012898BF45
:10337000002600F2B28094F8402094F83F3043EAEF
:103380000223B3F5007F40F0A88094F84B2094F816
:103390004A3053EA022309D1B4F85A1094F859304C
:1033A00094F8582043EA012342EA032394F8442086
:1033B000E361511E0129A27000F28F8094F8410050
:1033C00081B26181002900F08880411E014240F0F5
:1033D000848094F8465094F8451041EA05210F4640
:1033E00021810DB2390778D194F848C094F847107C
:1033F00051EA0C2109D1B4F856E094F855C094F87C
:1034000054104CEA0E2C41EA0C2194F8438094F8B5
:1034100042C05CEA082860D003FB02F208EB171CEC
:103420009444614559D3A1EB0C018142B1FBF0FEFC
:1034300053D37E498E4550D84FF6F5718E4566D8E8
:1034400040F6F5718E450EF1020100F2958008EB11
:1034500006000CEB0605A1616062E5622662002FA2
:103460003BD0104401EB410501F00102A06202EBE8
:103470005502012002F2FF12B3EB522F2DD34FF071
:10348000FF33C4E9033380222271694920700B881D
:1034900001339BB200250B80E38065611EE06D4621
:1034A000294604F5F97304F232261A7932B15F899C
:1034B000587A1A7A40EA072042EA00221033B342CF
:1034C00041F8042BF1D105F1100755F8046BAEB9A2
:1034D0000320AF42F9D104280ED00D25284604B0B0
:1034E000BDE8F0810325284604B0BDE8F0810B2536
:1034F000284604B0BDE8F0810125EFE731462046BB
:10350000FFF7A6FE0128E4D835E70C25E6E794F896
:103510005F1094F85E20266242EA01222A430EF1EF
:10352000020108EB06050CEB060012B2A161656210
:10353000E062002AD1D1B4F8627094F8615094F836
:1035400060008A0002F2FF1245EA072140EA0121E9
:10355000B3EB522FA162C0D394F8651094F8643095
:1035600043EA01234FF0FF328021012BC4E90322FB
:10357000217110D0032088E708EB06050CEB06004C
:10358000A1616562E0622662002FA6D02A44A26291
:1035900002204A006EE7236B711C994204D020463A
:1035A000FFF72EFB0028E5D194F8332294F832324D
:1035B00043EA02234AF65522002193422171D9D1D0
:1035C000E08E94F8352094F834301A4942EA00220B
:1035D00043EA02238B42CDD1B4F81A0294F819229F
:1035E00094F8183201F1FF5101F5005142EA00222E
:1035F000203143EA02238B42BCD1B4F81E6294F816
:103600001D02B4F8225294F8211294F81C2294F866
:10361000203240EA062041EA052142EA002243EA3C
:103620000123C4E90332A5E7B00C0020F5FFFF0F2A
:10363000CC0C00205252614100000000000000004C
:1036400010B584B0114B019003A802930C4603936C
:10365000FDF786FC002816DB0D4A52F820300BB12E
:1036600000211970019B0BB10021197042F8203024
:1036700014B9204604B010BD002201A902A8FFF72A
:1036800037FE04B010BD0B2004B010BD4CC30008C1
:10369000B00C00200000000000000000000000004E
:1036A00008B50C4807F044FC00B108BD0A480121E8
:1036B000FFF7C6FF40B9094B01221A70202383F39C
:1036C000118880F3118808BDBDE80840014807F063
:1036D00007BC00BF180D0020B4140020A424002053
:1036E0000F4A38B5002405460E48147007F0F8FB61
:1036F00021462046FFF7A4FF00B938BD04460A4919
:103700002846FEF7DDFA132C96BF084B084A53F8FB
:10371000242008492846BDE83840FEF7D1BA00BF4A
:10372000A4240020180D002058C3000848CF00082A
:1037300050C3000878C3000800000000000000002B
:1037400038B50446134807F0F3FB00B138BD124802
:103750000121FFF775FF054660B910492046FEF7C5
:10376000AFFA0F4B01221A70202383F3118885F3DF
:10377000118838BD0B492046FEF7A2FA132D96BFDB
:10378000094B0A4A53F8252009492046BDE838402C
:10379000FEF796BA180D0020B4140020B4C3000838
:1037A000A424002080C3000848CF000850C30008AC
:1037B00078C30008000000000000000000000000C6
:1037C0002DE9F04782B03D4A009207460C460022A0
:1037D00001A96846FFF78CFD804638B9019D256038
:1037E000AE692B69B21E934204D83B60404602B0DA
:1037F000BDE8F0872B78012B33D0696A04468146F7
:103800005CB92B6B994201F1010A4CD02846FFF7B5
:10381000F7F9002849D1019D51462B78022B05F17B
:10382000340336D018191B5DB0F802C0427842EA62
:103830000C2243EA022333F0704308BF09F1010967
:103840000434013EC4F30804DAD1C7F800902B79A0
:10385000C5F8109043F0010340462B7102B0BDE85B
:10386000F0870224814608E0012821D008B909F137
:103870000109019B9A6994421ED221462846FFF70E
:10388000D7F9431C04F10104EED1019D4FF001086A
:10389000DBE71A191B5D527853EA022308BF09F1CE
:1038A00001090234CDE75146B7E7019D8046CCE7D8
:1038B000019D4FF00208C8E71D46C6E74CC300084B
:1038C00030B583B00446002101A8FFF779FF58B155
:1038D000132896BF174B184A53F820201749204643
:1038E000FEF7EEF903B030BD154D019A6B8915490D
:1038F0002046FEF7E5F96B89019A134902FB03F2B2
:1039000052022046FEF7DCF96B89019A0F4902FB4F
:1039100003F2C2F355022046FEF7D2F96B89019AF1
:103920000B4902FB03F22046C2F3CB22FEF7C8F993
:1039300003B030BD48CF000850C3000878C300086A
:10394000B4140020D0C3000808C400081CC4000838
:103950002CC400080000000000000000000000006F
:103960002DE9F84F0B78D0F800802F2B0C468346BA
:1039700010D05C2B10D0D8F81430836023781F2B24
:1039800014D880238BF82B3058460021BDE8F84F1F
:10399000FFF7BEB914F8013F2F2BFBD05C2BF9D0F9
:1039A0000023CBF8083023781F2BEAD9DFF8F4A1E5
:1039B0000BF120090BF12B0620274B4603F8017B66
:1039C000B342FBD123782E2B25D0202B0CD9A64631
:1039D00000254FF0080C01202F2B47D05C2B45D041
:1039E0002E2B04D0654528D30620BDE8F88FBCF106
:1039F0000B0FF9D008254FF00B0C1EF8013F202BC0
:103A000000F10100E8D89BF82030E52B044400F0D9
:103A1000BE8004233BE08BF8203063782E2B40F0EF
:103A2000AE808BF82130A3782E2BDDD003222F2BF4
:103A300040F09C801444202329E01A0648BF03F07C
:103A40007F03574948BF1AF8033022229342CBD054
:103A500011F8012F002AF9D1A3F16102192A01D826
:103A6000203BDBB209F805300135C6E723181A7888
:103A70002F2A1C4603F10103F9D05C2AF7D0002D50
:103A8000B2D09BF82030E52B00F0858000238BF826
:103A90002B3000215846DBF80050FFF739F930B1E0
:103AA00051E000215846FFF7E3FA00284BD1DBF83C
:103AB00018102B6B994204D02846FFF7A1F8002874
:103AC00041D1DBF81C301A78002A4CD0DA7A02F0A7
:103AD0003F018BF80610D87A10F00800E1D11946A2
:103AE0009BF820C011F8013BA3EB0C030BF1210C58
:103AF000002BD6D11CF801EB11F8013BB445A3EB28
:103B00000E03F5D1002BCCD19BF82B305B073FF592
:103B10006CAFD20635D5DBF8103098F80010C3F33F
:103B2000080208F1340313440329D87E9A7E42EA3E
:103B3000002205D1597D1B7D43EA012342EA03425D
:103B4000CBF8082039E704289BF82B307FF44DAFE1
:103B50009D0618D558077FF530AF80238BF82B30A2
:103B60000020BDE8F88F9BF82B30F1E75C2B3FF489
:103B700061AF202B3FF638AF1444242387E702229D
:103B800055E7052031E75907FBD504202DE705232C
:103B90008BF820303DE705238BF82030002376E7B3
:103BA0003CC4000898CF000800000000000000009E
:103BB00030B583B01E4B00930446002201A968462D
:103BC000FFF796FB18B10023236003B030BD019BC3
:103BD000009923602046FFF7C3FE10BB94F92B30F9
:103BE000002B22DBA379DB061DD5019AE169107851
:103BF000CD7E8B7E032843EA052305D1487D097DD0
:103C000041EA002143EA0143A360D388A380002155
:103C10002046FFF77DF8042805D00028D3D103B053
:103C200030BD0428CFD10520CDE7019AEDE700BFD4
:103C30008C220020000000000000000000000000B6
:103C400038B5056881692B6B9942044603D0284634
:103C5000FEF7D6FF28B9E269E521012311700020A3
:103C6000EB7038BD00000000000000000000000004
:103C700070B506680446FFF763FA0546B8B9A1694E
:103C8000336B994203D03046FEF7BAFF88B9E36937
:103C9000002103F1200203F8011B9342FBD1E069EC
:103CA0000B2204F12001FDF74BF90123F3702846A4
:103CB00070BD0546284670BD0000000000000000F1
:103CC000F0B50229A3B0064608D06049FDF7F8FF19
:103CD0005F493046FDF7F4FF23B0F0BD1546D2E949
:103CE00000320C4602A802920193FDF739F92246F0
:103CF00003A901A8FFF7FCFA58B1132896BF554B4A
:103D0000554A53F8202055493046FDF7D9FF23B0D6
:103D1000F0BD039B01990C930CA8FFF721FE00282E
:103D2000EBD19DF85B3013F0A00F6BD113992022DB
:103D300004A8FDF705F917A80CA92C22FDF700F936
:103D4000029917A8FFF70CFE002855D00428D4D1FB
:103D500017A8FFF78DFF0028CFD11E9C132204F176
:103D60000D000DF11D01FDF7EBF89DF81B30DA0693
:103D70004FD443F02003E37203980123C370E37A26
:103D8000DB0627D50E9B199A934223D00178E77E54
:103D9000A37E032943EA072305D1677D217D41EAFC
:103DA000072143EA01438169023B02398B4232D247
:103DB0004189C46A03FB014169B3036B99422CD06A
:103DC000FEF71EFF002898D1039890F855202E2A60
:103DD000034639D00CA8FFF733FF00288DD1039894
:103DE000FEF77EFE002888D1D5E900231C49304625
:103DF000FDF766FF23B0F0BD199A0E9B9A4203D0DF
:103E0000184A80E7184A7EE71B9A109B9A42F7D11E
:103E10009EE7E372B0E7154A75E790F855302E2B10
:103E2000D8D1039B80F86E20C2F3072180F86F1071
:103E30001978032905D1120C110A80F8682080F83E
:103E400069100122DA70C5E7199AEBE7A8C40008E7
:103E5000CCC4000848CF000850C3000878C300084D
:103E6000F8C4000860C4000888C400084CC40008F6
:103E70002DE9F043012993B0054609D06949FDF7C2
:103E80001FFF69492846FDF71BFF13B0BDE8F0830B
:103E900013680193164602A9022201A8FFF728FA27
:103EA000044660B1132C96BF604B614A53F824203E
:103EB00060492846FDF704FF13B0BDE8F083DDE953
:103EC000011307A80793FFF74BFD044698B1042898
:103ED000E8D19DF8471011F020011DD1029B0393FA
:103EE00003A8FFF735F80746014630B903A8FEF7E7
:103EF000F7FF514ADCE7514ADAE7012800F08C80ED
:103F0000431C0BD00298FEF7B3FD044658B1394666
:103F100003A8FEF7E5FFC5E7494AC9E703A8FEF78E
:103F2000DFFF484AC4E7029A202102F134033F32FE
:103F300003F8011B9A42FBD1029802782E235721E5
:103F40004FF0100C3A2480F834305FFA87F90023E0
:103F5000C7F30728032A80F84D1080F83FC080F887
:103F60004C4080F84A3080F84B3000F1340180F842
:103F70004E9080F84F8006D127FA0CF31A0A80F889
:103F8000483080F8492054302022FCF7D9FF029BAA
:103F9000099A197883F86E20C2F3072083F86F001E
:103FA00003294FF02E0083F8550005D1120C110A99
:103FB00083F8682083F869100122DA7007A8FFF7F8
:103FC00057FE024604460028A1D10E9B02989A751E
:103FD000DA753A221A7657225A760E9B83F81A908F
:103FE00083F81B800278032A03D13F0C3A0A1F751D
:103FF0005A750E9A10210123D172C370FEF770FD1D
:10400000044600287FF44EAF32680F492846FDF77A
:1040100057FE13B0BDE8F08303A8FEF761FF0B4A1B
:1040200046E700BF88C50008A0C5000848CF0008C3
:1040300050C3000878C300084CC5000860C40008DD
:1040400088C4000814C50008D4C500084CC4000882
:10405000F8B5066804460D46042322E0336B9A4205
:1040600003D0FEF7CDFD034628BBE3691A78002193
:104070002046FAB1DB7AE52A03F03F03A3710CD0A6
:104080002E2A23F0200708D00F2B06D0A7F108070F
:10409000B7FA87F77F09AF4209D0FEF7E9FF034679
:1040A00048B9A26930461146002AD7D11BB900236E
:1040B0001846F8BD04230022A2611846F8BD00BFCF
:1040C0002DE9F043DFF8888195B0002202A901A80C
:1040D000CDF8048088F80020FFF70AF9064600288A
:1040E0005CD1029B09935D690B95002D00F09F80C8
:1040F0004FF400748146202109A8FEF709FE00282C
:1041000040F0A08002980F99036B994205D0FEF70A
:1041100077FD002840F096800298109A0178937EEF
:10412000D07E032943EA002305D1517D127D42EA66
:10413000012243EA0243002109A80B93FEF7E8FDA0
:10414000B8B182E0029A109F127897F81BE0BB7E0C
:10415000032A43EA0E2306D197F815E03A7D42EA96
:104160000E2243EA0243AB421FD0FEF781FF034613
:1041700040B9002109A8FFF76BFF0346002109A8F9
:10418000002BDFD0042B18BF1E46314908BF022682
:10419000002330460B7015B0BDE8F0834146002384
:1041A00030460B7015B0BDE8F0830F9B8DF815906D
:1041B000002B39D003A910A8FCF78AFE9DF8153012
:1041C00093B30DF11501002311F8010F1A460133C5
:1041D0000028F9D1911CA14231D833B3093203A987
:1041E0000A44E31A013C019912F801090855A34257
:1041F000F8D1019A5C1E2F2111550B9D002D7FF4E3
:104200007AAFB4F5007F12D0019C1149023B2344E0
:104210001A460232121B13F8010F01F8010BB2F516
:10422000007FF5D30026BAE74CB12346E1E7019AB7
:1042300008492F2382F8FF3188F80030AFE704499E
:104240001126ACE702490646A9E701490646A6E75A
:104250008C2200208D2200200000000000000000C1
:1042600010B50446FFF72CFF58B1132896BF084B32
:10427000084A53F8202008492046BDE81040FDF7C1
:104280001FBD2046054A0649BDE81040FDF718BD90
:1042900048CF000850C3000878C300088C220020D3
:1042A000BCC8000800000000000000000000000082
:1042B00070B501298EB0044608D03149FDF700FDE4
:1042C00030492046FDF7FCFC0EB070BD1368019329
:1042D000164602A9002201A8FFF70AF8054668B1B0
:1042E000326829492046FDF7EBFC132D38D9274ABF
:1042F00027492046FDF7E4FC0EB070BDDDE901134F
:1043000003A80393FFF72CFB054600BB9DF937304C
:10431000002B29DB9DF81230DB061AD502990A9A88
:104320000878D57E937E032843EA052305D1507D86
:10433000127D42EA002243EA02434B61FFF7C0FECE
:10434000B0B11328D3D8134B53F82020D0E704285A
:10435000C6D132680C492046FDF7B2FC0E4AC7E7C9
:104360000C4B53F82520C3E7029B059A5A61E5E7F9
:104370000A4A0B492046FDF7A3FC0EB070BD00BFF2
:1043800008C600081CC6000838C6000850C300084C
:1043900078C3000848CF0008F0C500088C22002030
:1043A000BCC8000800000000000000000000000081
:1043B00070B5002990B004464FDC02AE00223D4BA0
:1043C0007260694601A802920193B260FEF790FF05
:1043D0000146054660B138492046FDF771FC132DB2
:1043E00064D9364A36492046FDF76AFC10B070BDE4
:1043F000009B079105A80593FEF78AFC0546002857
:1044000034D0042DE7D100238DF808300098016ADC
:10441000036B994205D0FEF7F3FB05460028DAD17D
:1044200000980378032B3FD0042B14BF2723642369
:104430003430C218C55C50885378224943EA0023BF
:1044400045EA032532462046FDF73AFC1E492A4636
:104450002046FDF735FC10B070BD1C49FDF730FC5F
:104460001B492046FDF72CFC10B070BD05A80121AA
:10447000FFF7EEFD05460028C3D10C983246431ED7
:104480000A3013F8011F02F8011B9842F9D10021EC
:104490008DF813100DF1130313F8012D202AB5D157
:1044A0009E421970F8D1B1E74323C1E7094B53F895
:1044B000252097E7B4CB0008A8C6000850C3000821
:1044C00078C300088CC6000898C6000854C60008C7
:1044D00068C6000848CF0008000000000000000087
:1044E0002DE9F041012994B0064609D06049FDF755
:1044F000E7FB60493046FDF7E3FB14B0BDE8F0810F
:1045000013680193174602A9022201A8FEF7F0FEE4
:10451000044618BB03AB0DF11701202203F8012B51
:104520008B42FBD1019C23781F2B74D9DFF864C127
:1045300003A800250134019414F8011CA1F16102C3
:10454000192A8BB21CD8203B9BB24B492B2202E08C
:1045500011F8012FE2B19A42FAD106243A6847498C
:104560003046FDF7ADFB132C96BF454B454A53F83B
:10457000242045493046FDF7A3FB14B0BDE8F08187
:104580007F2B84BF614411F8803C002BDDD1E4E730
:104590000B2DE2D000F8013B22781F2A05F1010320
:1045A00001D91D46C6E79DF80C20E52A37D003AA9D
:1045B000154400E063B315F80129202A984603F159
:1045C000FF33F7D0029B0993002109A80B91FEF756
:1045D0009FFB04460028C1D1012109A8FFF738FD3F
:1045E000044618BBB8F1000F3BD1109BE5221A70AE
:1045F00002980123C370FEF773FA04460028ADD178
:104600003A6822493046FDF75BFB14B0BDE8F08103
:104610004FF00008D6E79DF80C30E52BF8D13A684A
:1046200016493046FDF74CFB194AA2E7042895D1FC
:10463000B8F1000FE4D009A8FEF782FD0446002877
:104640008CD1109B03F1200203F8014B9342FBD164
:10465000109B0822DA72109803A90B22FCF770FC59
:10466000C6E7109803A90B22FCF76AFCC0E700BF5D
:10467000C4C60008DCC60008DCD0000800C700087B
:1046800048CF000850C3000878C3000820C70008BE
:1046900088C4000898CF0008000000000000000057
:1046A00030B59BB00222019003A901A8FEF720FEBD
:1046B00008B11BB030BD039B01990F930FA8FFF702
:1046C0004FF90028F5D19DF86730980632D41906C5
:1046D00030D49DF84230DA072FD4039D169A2978FA
:1046E000D07E947E032944EA002405D1517D127DB9
:1046F00042EA012244EA0244DB0611D56B69A34277
:104700001BD004A8002104950694FEF701FB0028A5
:10471000CFD1014604A8FFF79BFC70B10428C8D193
:104720000FA8FFF78DFA0028C3D144B90398FEF70C
:10473000D7F9BEE706201BB030BD0720B9E72146F8
:104740000FA8FEF7CDFB0028B3D1EFE70000000073
:10475000012938B5044608D01049FDF7B1FA2046C2
:104760000F49BDE83840FDF7ABBA10681546FFF7B2
:1047700097FF58B1132896BF0A4B0B4A53F82020D5
:104780000A492046BDE83840FDF79ABA2A68084928
:104790002046BDE83840FDF793BA00BF40C7000887
:1047A00058C7000848CF000850C3000878C3000865
:1047B00088C70008000000000000000000000000A2
:1047C000012938B5044608D01049FDF779FA20468A
:1047D0000F49BDE83840FDF773BA10681546FFF77A
:1047E0005FFF58B1132896BF0A4B0B4A53F820209D
:1047F0000A492046BDE83840FDF762BA2A680849F0
:104800002046BDE83840FDF75BBA00BF9CC70008F2
:10481000B4C7000848CF000850C3000878C3000898
:10482000E8C70008000000000000000000000000D1
:1048300030B583B00D4601A90446FCF7C1FBA8B909
:1048400001462046FFF704FC10F0FB030ED1A269DD
:104850006B7222B1294604F11C00FCF739FB20469B
:104860000021FEF705FC042808BF002003B030BD7E
:104870002DE9F0478CB0054601A8FFF799F920BB58
:104880001748184C0646FBF75BFF00F10108074686
:10489000B044DFF85090494601A8FFF7C9FF8246AF
:1048A00098B9607A88B12E28F5D0237ADB060FD527
:1048B0002F230D49F355404606F0BAFF2846FFF76F
:1048C000D7FF06F807A00028E3D00CB0BDE8F087BA
:1048D000054B064932462846FDF7F2F9D9E700BFF5
:1048E0008C2200208C2400209524002000C8000881
:1048F00030B5002985B01EDC144B1B78B3B10546DA
:1049000002A903A8FEF75CFF0446C8B9DDE902323C
:104910005B890F49580200902846FDF7D1F90D4BED
:1049200028461C70FFF7A4FF05B030BD0A49FDF70B
:10493000C7F905B030BD0949FDF7C2F905B030BD72
:1049400007492846FDF7BCF905B030BDA424002076
:1049500050C800088C22002018C8000808C80008A9
:1049600034C8000800000000000000000000000043
:104970002DE9F04F8DB00646FFF7A2FB68B1132872
:1049800007D9474A47493046FDF79AF90DB0BDE8C7
:10499000F08F454B53F82020F4E74448FFF708F91F
:1049A0000546002875D1424CDFF800910746824643
:1049B000A04604F1090B3EE0D4F800E097B244228F
:1049C0001CF0010F14BF52232D231CF0020FCDE960
:1049D00008EBA088374914BF4FF0480E4FF02D0E5A
:1049E0001CF0040FCDF800E014BF4FF0530E4FF051
:1049F0002D0ECDF804E04FEA502E0EF2BC7E1CF0D6
:104A0000200FCDF80CE0B4F806C014BF4FF0410EF3
:104A10004FF02D0ECDF808E000F01F0EC0F343104C
:104A2000CDE9040E4FEADC20CCF3451ECDE9060E9D
:104A30003046FDF745F941464846FFF7F9FE7A1C36
:104A400068B9637A5BB194F808C01CF0100FB3D159
:104A5000D4F800E00135F244ADB22D22B0E716499A
:104A6000009753462A463046FDF72AF900210BA845
:104A7000FEF7A6FE002882D1104B0B9A5B891049E5
:104A800002FB03F230465202FDF71AF90DB0BDE801
:104A9000F08F13283FF675AF034B53F8202071E7D2
:104AA00050C3000878C3000848CF0008840C0020D9
:104AB000B40C002094C80008C4C80008B414002036
:104AC000F0C8000800000000000000000000000026
:104AD0002DE9F04F1F4685B0002389463B6003A9AE
:104AE00090460446FCF76CFA0546002857D1657CD1
:104AF000002D54D194F810A01AF0010A00F089801A
:104B00006069E268121A904528BF9046B8F1000F1C
:104B100045D004F1280B0095C0F3080149BB039967
:104B20004A89013A12EA50223DD0A0698B690238C5
:104B3000023B984244D2B1F80AC0CE6A0CFB006630
:104B4000002E3DD0B8F5007F16443FD2E269B24254
:104B50000BD094F91030002B5DDB487801233246EE
:104B60005946FEF71DF8002845D16169E661C1F399
:104B70000801C1F50073434528BF434659441A460E
:104B800048461E46FCF7DCF93B6833443B606069ED
:104B9000B8EB06083044B1446061BDD1009D2846A1
:104BA00005B0BDE8F08F68BBA068012808D9431C98
:104BB00021D00399A0618B690238023B9842BAD395
:104BC00002252846657405B0BDE8F08F02EB582039
:104BD00060454FEA582588BFACEB020548782B4664
:104BE00032464946FDF7DCFF28B994F91020002A27
:104BF0001EDB6E02C8E7554601232846637405B0E4
:104C0000BDE8F08FA16920680192FEF711F8019AC2
:104C1000CBE70725C3E7487801235946FDF7C8FECF
:104C20000028E8D1237C039903F07F03237494E7E1
:104C3000E069801BA842DCD209EB40204FF40072EF
:104C40005946FCF77DF9D4E70000000000000000A1
:104C5000F0B58FB00446019101A802A91646FEF7EF
:104C600047FB054620B10023284623600FB0F0BD66
:104C7000DDE9011303A80393FEF772FE00283BD180
:104C80009DF93730002B4DDB16F01C0F3BD09DF803
:104C9000123013F0110F49D1310750D4029A116B21
:104CA0000A9BC4E908131078DF7E997E032841EA45
:104CB000072105D15F7D187D40EA072041EA0041C8
:104CC000A160D88B597F1B7F226041EA002143EA13
:104CD0000123D188A1800022E36026746274E2611E
:104CE000626104F1280304F50A7403F8012BA3425E
:104CF000FBD128460FB0F0BD16F01C0F01D00428E0
:104D000016D00546AFE79DF81230DA060CD4B2078C
:104D100001D5DF070AD4029A3007116BC0D546F0DF
:104D20004006BDE706259EE704259CE707259AE790
:104D300003A8FEF79DFF46F008060028E1D1029A7D
:104D40000A9B1178D87E9F7E032947EA002705D168
:104D5000587D197D41EA002147EA0147002157208B
:104D60004FF03A0C9973D973587483F810C00A9BAA
:104D70002020D8720A9B9976D9761078032804BF30
:104D8000197559750A9B0021012019775977997770
:104D9000D977D0700FB9116BC1E7136B009303A8DB
:104DA0003946FEF79DF80028ABD1029A009B116BA3
:104DB0008B420AD010461946FDF722FF029A013FA6
:104DC000D7600028E7D005464DE7013FD760A6E74A
:104DD0002DE9F04F012995B0074609D06649FCF747
:104DE0006FFF66493846FCF76BFF15B0BDE8F08FE2
:104DF00015460C4612686249624E6348FCF760FF34
:104E00002D684FF480720021304606F059FC5F484F
:104E100022462946FFF71CFF48B1132816D95C4AE1
:104E20005C495948FCF74CFF15B0BDE8F08F574876
:104E30000AAB4FF480723146FFF74AFE044648B190
:104E40001328ECD8544B53F82020E9E7524B53F881
:104E50002020E5E70A9A51493846FCF731FF4B48D4
:104E6000FEF796F9BDF828300393002BBDD0DFF88C
:104E700018810AE03B2B11D00D2B01D00A2B75D1E4
:104E80000134A4B2039BA342AFD9282200210DEB29
:104E9000020006F015FC335D232BEBD1002504F155
:104EA000280189B20AA842F2014E07E0BCB215B14E
:104EB00002F8013B1046A1420AD0335D0D2B04F1EC
:104EC00001072EFA03FC0246F0D81CF0010FEDD0CA
:104ED000002DD7D004A90AA8FDF742FB05AF8246F2
:104EE00004A90020BB460025FDF73AFB50B1042D74
:104EF0002ED04BF8040B04A900200135FDF730FB40
:104F00000028F4D114AB03EB8503254943F83C0C8E
:104F100052464046FCF7D4FE6DB1DFF894904FF056
:104F2000000B57F8042B0BF1010B49464046FCF7E8
:104F3000C7FE5D45F5DC1B494046FCF7C1FE05ABED
:104F4000009352462B4641461748FDF781F999E7F1
:104F50004FF0000A15494046FCF7B2FE1049CDF863
:104F600024A052464046FCF7ABFED6E7B3F12A0533
:104F700018BF012593E700BF04C9000820C9000835
:104F800038C90008B81C0020FC0F00206420002055
:104F900050C3000878C3000848CF000848C900087B
:104FA00074C90008F4C2000808D100085CC90008F0
:104FB00078C90008000000000000000000000000A8
:104FC0002DE9F041012996B0054609D03949FCF791
:104FD00077FE39492846FCF773FE16B0BDE8F0812C
:104FE00016460C46126835493548FCF769FE2246DC
:104FF00031683448FFF72CFE0446002848D1314F71
:10500000314E5022002102A806F05AFB01AB50227B
:1050100002A93846FFF75CFD044648BB019BEBB193
:10502000DFF8B88007E04146FCF74AFE0134019BF7
:10503000A4B29C4210D216AB2344314613F8502C34
:105040000A2A284601D00C2AEDD1FCF739FE01349A
:10505000019BA4B29C42EED34F2BD2D81A492846CA
:10506000FCF72EFE1748FEF793F816B0BDE8F08166
:10507000132896BF154B164A53F820201549284689
:10508000FCF71EFE0F48FEF783F816B0BDE8F0816E
:10509000326811492846FCF713FE132C96BF0B4BC0
:1050A0000B4A53F824200B492846FCF709FE16B09A
:1050B000BDE8F0817CC9000894C9000838C900081F
:1050C000FC0F0020A8240020F4C2000848CF0008EC
:1050D00050C3000878C30008B8C9000880C10008A0
:1050E0002DE9F04F944C0E46054694E80300ADF5CB
:1050F000117D0DF1100B022E8BE8030040F0E080D3
:105100008E4B1B78002B00F09C805068144606F0F4
:1051100041FA216806460A2206A8FFF799FD0028F1
:1051200040F08180082E03A906A893BFB046083E30
:105130004FF008080026FBF743FF9DF8293018437D
:1051400010F0FF0F6BD19DF828309A0767D50B9CA4
:1051500018EB040F2CBFE7434746002F57D04FF002
:10516000000AD946C4F3080000287CD1039B5D895E
:10517000013D15EA542511D1002C40F0B18008986A
:10518000002800F0C68001287FD0431C00F0A480D6
:10519000089B0C90002B00F09080039B9DF9282029
:1051A000002A7BDB0C9A9969023A02398A426CD256
:1051B0005889D96A00FB0212002A66D0B7F5007F31
:1051C0002A4446D305EB572188424FEA572438BF7B
:1051D000441B4946587801922346FDF7E9FB002815
:1051E0007AD10D99019A891A8C4200F28480650265
:1051F0000B9C099B2C44A34238BF23467F1BAA4427
:10520000A9440B940993ADD19DF82830574643F03B
:105210004003B8458DF8283001D8002E82D106A869
:10522000FDF7B6FF88B1132896BF454B454A53F8A2
:10523000202045494548FCF743FD0DF5117DBDE8AB
:10524000F08F43492846FCF73BFD0DF5117DBDE885
:10525000F08F0D990B988A4202D00999884260D349
:105260000D92C0F30800C0F50075BD4210AB28BF19
:105270003D4618442A464946FBF762FE9DF8283011
:1052800063F07F038DF82830B2E7022306A88DF87B
:105290002930FDF77DFF0028D7D0C4E758780D9A54
:1052A000012310A9FDF784FBB0B99DF82820039BCA
:1052B00002F07F028DF8282074E7039B08906DE7C9
:1052C00024492846FCF7FCFC23492846FCF7F8FC57
:1052D0000DF5117DBDE8F08F01238DF829309EE793
:1052E0000C9906A8FDF734FE00287FF44CAF9DF81A
:1052F000283057468BE709EB41214FF4007210A884
:10530000FBF71EFE9DF8283003F07F038DF8283050
:105310006DE7294606A8FDF71BFE00287FF433AF92
:10532000E5E758780192012310A9FDF739FC002820
:10533000D2D10B98019A93E7F4BD0008A424002071
:1053400048CF000850C3000878C30008FC0F0020B5
:1053500018C80008D4C90008FCC9000800000000F3
:105360002DE9F041D0E90246B4420746884653D0C1
:10537000D0E900C0234600211CF8035001352B441E
:105380009842D8BF1B1AB34201F10101F4D1012A9E
:105390003D693CD0A94253DBB44254D04B1E9D42E0
:1053A00054D0D7E900EC002001E09D4217D01EF850
:1053B000043001331C44A44500F10100D8BFA4EB24
:1053C0000C04C343B4420B44EFD11EF806405CB951
:1053D000012A35D101353D612046BDE8F0812646E0
:1053E0001EF80640002CF3D0013540223D6100211B
:1053F000404606F065F97B68A2199A4210DA3968CE
:105400000136314440462246FAF780FFE4E7002D9A
:1054100004DD023D3D61BDE70021B8E70024DBE784
:105420009B1B39685D1E013631442A464046FAF717
:105430006DFF396808EB0500621BFAF767FFCBE7E1
:105440004FF0FF34C8E7D7F800E0BEE7D7F800E038
:105450002646BAE70000000000000000000000003F
:10546000154A70B456698568B4684162A5420ED881
:105470000021134680F820101B689A689542FBD9DA
:105480005A6870BCC0E90032106058607047002351
:1054900086F8203013461B6899688C42FBD3596804
:1054A0007160012433600E605E60314680F82040F8
:1054B00070BC5061FAF714BFBC1D00200000000052
:1054C000F8B5069D202484F3118848394418164EF7
:1054D000E6603169E06144F8243C44F8205CA4F1C2
:1054E000240002250123A260E2636061258484F820
:1054F000223004F1280204F12C0300250B4F0C4844
:10550000216144F8047CA061C4E90D552046CC60BB
:10551000C4E90A23236329463461FFF7A1FF85F319
:1055200011882046F8BD00BFBC1D0020F102000814
:1055300030CA000800000000000000000000000069
:10554000084B59691A6810B481F820001068186077
:105550000124436082F8204010BC5A611046FAF7DB
:10556000BFBE00BFBC1D0020000000000000000006
:1055700070B52E4B044680685D6930B3AA688368B5
:10558000934207D290F820308260062B35D0072B4B
:1055900020D09BB1234603E09968AA68914202D3C8
:1055A0001B689C42F8D15A680620C5E90032156094
:1055B0005D606C62BDE87040FFF7C2BFD0E90032A9
:1055C00013605A60FBF7F4FDE4E7AB6BC4E90253E8
:1055D000AC6370BDD0E90031466A0B605960334658
:1055E00002E099688A4202D81B689E42F9D15A6843
:1055F000C0E9003210605860CCE7D0E90031466A5B
:105600000B605960334602E099688A4202D81B68F1
:105610009E42F9D15A68C0E9003210605860B06803
:10562000AA6883689342ADD3B4E700BFBC1D0020D5
:1056300038B5104B5C69A36A606204F12805AB427F
:1056400007D01A68A2621846FBF7B2FDA36AAB4204
:10565000F7D194F822303BB994F821309B0703D15D
:10566000D4E90332D3601A61BDE838400F20FFF758
:1056700067BF00BFBC1D002000000000000000004C
:1056800030B54B1C87B012D00C4D0D4A6B690446E7
:1056900001A8FBF70DFE2046FFF752FF049B13B154
:1056A00001A8FBF7C5FD6B69586A07B030BD034D13
:1056B000FFF746FF6B69586A07B030BDBC1D00207C
:1056C0004111000800000000000000000000000080
:1056D00003460068834206D002681A6000215360C6
:1056E0004162FBF765BD704700000000000000004C
:1056F000EFF30983203383F30988002383F31188B0
:10570000704700BF00000000000000000000000023
:10571000F8B50468A04221D007460D46002604E0F3
:105720000B2A1CD02468A74218D0E3682B43E360FF
:1057300015B123691D42F5D0D4E90103416B90F8FE
:1057400020200B430A2A4363EAD1426A1342E9D07C
:105750004662FBF72DFD2468A742E6D1F8BD426AF8
:1057600032EA0303DED1F3E700000000000000008E
:1057700038B50446202383F31188164D2B68B3B146
:1057800003685B689847F0B1296801392960E9B17D
:105790001148C3680BB1FBF74BFD23460F4A0E4877
:1057A0006421FBF785FD002383F3118838BD03686E
:1057B0005B6898470028EBD101460A2308482B6014
:1057C000FFF7A6FFE4E70A232B60E1E70548FFF7B0
:1057D0009FFFDDE75C1F0020144A0020715700087E
:1057E000F4290020D4280020000000000000000060
:1057F00030B583B005290FD8DFE801F0100E031093
:105800001029202383F311880378042B2FD0032B36
:1058100059D0002383F3118803B030BD202383F3D4
:1058200011882A4C237D1BB194F84C30002BF0D109
:1058300002212748FFF76CFF012526482575FBF755
:10584000CFFC254884F84C50FBF7CAFCE1E7202345
:1058500083F311881D4C0121201DFFF759FF002300
:10586000237584F84C3083F3118803B030BD174C96
:105870001A4A0190012105F04BF802210198184ABB
:1058800005F046F80025236B236204F10C00E36168
:10589000C4E90D55A561FBF7A3FCD4E9192304F174
:1058A0004400C4E915332265C4E91B552575FBF78F
:1058B00097FC201D012184F84C50FFF729FF20465A
:1058C00005F0E6FBA5E704F0EBFFA2E7E8160020F1
:1058D000EC160020F41600202C1700200CD2000833
:1058E00030D20008000000000000000000000000AE
:1058F0002DE9F047D0F85462D6F80C903368DA05F9
:1059000005469CB275D4202383F3118814F02F0F21
:1059100045D02F1D05F10C0808E0A006D6F804A01C
:105920001ED4336813F02F0F9CB238D02307F4D065
:1059300014F0080F0CBF00218021E00748BF41F0A0
:105940002001A20748BF41F04001630748BF41F46E
:1059500080713846FFF7DCFEA006D6F804A0E0D53B
:105960006B6995F858429BB3D5E90832934237D01A
:105970006A69591C013204EA0A0A6A61296283F8D9
:1059800000A0D5E907329A4201D3AB692B624046A9
:10599000FFF79EFE336813F02F0F9CB2C6D1002391
:1059A00083F3118819F0800F01D0220630D419F04A
:1059B000400F0BD0630609D5202383F31188D5E966
:1059C00011239A423FD0002383F31188BDE8F0876A
:1059D00004213846FFF79CFED5E908329342C7D12F
:1059E0006A69002AC4D04FF480613846FFF790FE00
:1059F00097E7202383F311884FF400710430FFF7F9
:105A000087FE6FF480733360002383F311887AE795
:105A1000202383F31188D5E911239A4220D0AA6B61
:105A2000296C581C0132AA63A86488421F7801D3EC
:105A3000EB6BAB6405F13000FFF74AFE77600023A3
:105A400083F31188B3E7AB6B002BBCD0281D10216A
:105A5000FFF75EFE4FF6BF7309EA0303F360B2E798
:105A6000AA6B002ADBD00821281DFFF751FE4FF654
:105A70007F7309EA0303F360E1E700BF0000000061
:105A800061B1084A10B4526944680346C2E900345F
:105A90000420226010BC5A60FFF7F2BD4FF0FF30C7
:105AA000704700BFBC1D0020000000000000000087
:105AB000034A52690260034653620320FFF7E0BDC8
:105AC000BC1D0020000000000000000000000000DD
:105AD0002DE9F0413C4EB0270025746B3784864693
:105AE0008C46B56085F31188D6E90B1738680F68C6
:105AF000B16A0160D6F824803449C0F80CE0C0F8DF
