:020000040800F2
:1000000000040020D9020008DB020008DB0200081F
:10001000DB020008DB020008DB020008DB0200084C
:10002000DB020008DB020008DB020008615A00085E
:10003000DB020008DB020008DB020008DB0200082C
:10004000DB020008DB020008DB020008DB0200081C
:10005000DB020008DB020008E17A0008B17A000840
:10006000817A0008517A0008217A00080179000895
:10007000D1780008A178000871780008417800085C
:1000800011780008E1770008DB020008DB020008B5
:10009000DB020008DB020008DB020008B17900087F
:1000A000DB020008C16E0008DB020008E16E0008F8
:1000B000A16E0008816E0008F16E0008117500083D
:1000C00021740008DB020008DB020008DB020008E4
:1000D000DB020008616E0008416E0008DB020008C8
:1000E00031790008DB020008DB020008DB020008AF
:1000F000DB020008DB020008DB020008B177000821
:10010000DB020008DB020008416F0008DB02000888
:10011000DB020008DB020008DB020008DB0200084B
:10012000817700085177000821770008F1760008F0
:10013000C1760008DB020008DB020008DB020008D1
:10014000DB020008DB020008DB020008F16F000898
:10015000917600086176000831760008216E00086B
:10016000DB020008DB020008DB020008DB020008FB
:10017000DB020008DB020008DB020008DB020008EB
:10018000DB020008DB020008DB020008DB020008DB
:10019000DB020008DB020008DB020008DB020008CB
:1001A000DB020008DB020008DB020008DB020008BB
:1001B000DB020008DB020008DB020008DB020008AB
:1001C000DB020008DB020008DB020008DB0200089B
:1001D000DB020008DB020008DB020008DB0200088B
:1002000072B6274880F30888264880F30988264874
:100210004EF60851CEF200010860022080F31488E7
:10022000BFF36F8F07F0BCFC06F002FD4FF05530B6
:100230001E491B4A91423CBF41F8040BFAE71C4996
:10024000184A91423CBF41F8040BFAE719491A4A8F
:100250001A4B9A423EBF51F8040B42F8040BF8E7E0
:1002600000201749174A91423CBF41F8040BFAE7B6
:1002700007F04EFC07F08CFC134C144DAC4203DA33
:1002800054F8041B8847F9E705F0D2FC104C114DD7
:10029000AC4203DA54F8041B8847F9E707F070BC56
:1002A00000040020000800200000000800000020DA
:1002B000000400201090000800080020880C002096
:1002C000880C0020B0610020E0010008E001000877
:1002D000E0010008E001000892E700F000F8FEE706
:1002E0002DE9F04FC1F814D043699D46BDE8F08F69
:1002F000002383F311882846A047002005F0C0FBA7
:10030000FEE705F0C5FB00DFFEE70000844641EA9A
:10031000000313F003036DD1403A41D351F8043B7D
:1003200040F8043B51F8043B40F8043B51F8043BCF
:1003300040F8043B51F8043B40F8043B51F8043BBF
:1003400040F8043B51F8043B40F8043B51F8043BAF
:1003500040F8043B51F8043B40F8043B51F8043B9F
:1003600040F8043B51F8043B40F8043B51F8043B8F
:1003700040F8043B51F8043B40F8043B51F8043B7F
:1003800040F8043B51F8043B40F8043B51F8043B6F
:1003900040F8043B51F8043B40F8043B403ABDD2DE
:1003A000303211D351F8043B40F8043B51F8043B80
:1003B00040F8043B51F8043B40F8043B51F8043B3F
:1003C00040F8043B103AEDD20C3205D351F8043B0F
:1003D00040F8043B043AF9D2043208D0D2071CBFDB
:1003E00011F8013B00F8013B01D30B880380604604
:1003F000704700BF082A13D38B078DD010F003037A
:100400008AD0C3F10403D21ADB071CBF11F8013BE9
:1004100000F8013B80D331F8023B20F8023B7BE738
:10042000043AD9D3013A11F8013B00F8013BF9D263
:100430000B7803704B7843708B78837060467047FD
:10044000A2EB0300704700BF02780B78012A28BF97
:100450009A42F5D16DE9044540EA0104CDE902670D
:100460006FF0000C4FEA447212B380EA010414F0FA
:10047000070F6AD100F0070420F0070004F003051D
:1004800021F007014FEAC505F0E8042314F0040F3A
:10049000F1E804670CFA05F462EA040266EA04066D
:1004A0000AD063EA0403624667EA0407664603E08B
:1004B000F0E80423F1E8046782FA4CF582EA0604C6
:1004C000A4FA8CF46CBB83FA4CF583EA0705A5FA11
:1004D0008CF595B950E9022351E9026782FA4CF58F
:1004E00082EA0604A4FA8CF483FA4CF583EA070541
:1004F000A5FA8CF52543DBD09CB92DBAB5FA85F465
:1005000024F0070427FA04F1DDE9026723FA04F373
:1005100003F0FF0001F0FF01FDE80445A0EB01003E
:10052000704724BAB4FA84F424F0070426FA04F1DC
:10053000DDE9026722FA04F202F0FF0001F0FF0198
:10054000FDE80445A0EB0100704714F0030F3CD117
:1005500010F0030428D150F8082B51F8083B82FA18
:100560004CF582EA0305A5FA8CF55DB950F8042C28
:1005700051F8043C82FA4CF582EA0305A5FA8CF5A1
:10058000002DE8D02DBAB5FA85F424F0070423FA3B
:1005900004F122FA04F202F0FF0001F0FF01FDE88D
:1005A0000445A0EB010070474FEAC40420F00300AB
:1005B00050F8082B21F0030151F8083B0CFA04F421
:1005C00062EA040263EA0403C9E710F003041AD0E4
:1005D000A1EB040120F00300E40750F8042B06D03F
:1005E0000FD28B785FFAA2F4E41A06D12BB1CB7844
:1005F0005FFAB2F4E41A00D11BB920465DF8104B43
:10060000704701F1040150F8042BCC0721F00301DD
:1006100051F8043B48D824D222F07F4482FA4CF5AA
:1006200094EA1325A5FA8CF50AD165B951F8043B73
:1006300084EA0204B4EB036F0ED150F8042BEBE70D
:100640004FEA132355E035F07F454DD10878FDE89A
:100650000445C0F1000070474FEA126203F0FF0347
:1006600047E002EA1C4482FA4CF594EA1345A5FAE5
:100670008CF50AD165B951F8043B84EA0204B4EB65
:10068000034F0CD150F8042BEBE74FEA134330E053
:1006900015EA1C4528D10B884FEA124229E04FEA9F
:1006A000124203EA1C4324E002F0FF0482FA4CF5F4
:1006B00094EA1365A5FA8CF50AD165B951F8043BA3
:1006C00084EA0204B4EB032F09D150F8042BEBE7C2
:1006D0004FEA13630DE015F0FF0F05D10B684FEAE9
:1006E000122223F07F4304E04FF00000FDE80445B0
:1006F000704712BA1BBA82FA4CF482EA0304A4FAD5
:100700008CF5B5FA85F402FA04F203FA04F34FEA21
:100710001260FDE80445A0EB136070470000000084
:1007200000000000000000000000000000000000C9
:1007300000000000000000000000000000000000B9
:1007400090F800F06DE9024520F007016FF0000C11
:1007500010F0070491F820F040F049804FF00004B9
:100760006FF00700D1E9002391F840F000F1080094
:1007700082FA4CF2A4FA8CF283FA4CF3A2FA8CF3CC
:100780004BBBD1E9022382FA4CF200F10800A4FA33
:100790008CF283FA4CF3A2FA8CF3E3B9D1E9042387
:1007A00082FA4CF200F10800A4FA8CF283FA4CF3BE
:1007B000A2FA8CF37BB9D1E9062301F1200182FA78
:1007C0004CF200F10800A4FA8CF283FA4CF3A2FA7E
:1007D0008CF3002BC6D0002A04BF04301A4612BA8C
:1007E000B2FA82F2FDE8024500EBD2007047D1E98F
:1007F000002304F00305C4F100004FEAC50514F01E
:10080000040F91F840F00CFA05F562EA05021CBFEE
:1008100063EA050362464FF00004A9E753B94AB9F9
:10082000002908BF00281CBF4FF0FF314FF0FF30F8
:1008300000F06CB9ADF1080C6DE904CE00F006F8DB
:10084000DDF804E0DDE9022304B070472DE9F0474C
:10085000089E0D4604468E46002B40F082808A4258
:10086000174646D9B2FA82F24AB1C2F1200105FA1E
:1008700002F320FA01F1974041EA030E94404FEA57
:100880001748230CBEFBF8FCB9B208FB1CEE43EA88
:100890000E430CFB01F098420AD9FB180CF1FF350E
:1008A00080F01681984240F21381ACF1020C3B4477
:1008B0001B1AA4B2B3FBF8F008FB103344EA03445C
:1008C00000FB01F1A14209D93C1900F1FF3380F08E
:1008D0000181A14240F2FE8002383C44641A40EAA1
:1008E0000C4000211EB1D4400023C6E90043BDE8FE
:1008F000F08702B9FFDEB2FA82F2002A4FD1CB1B99
:100900004FEA174E1FFA87F80121B3FBFEFC250CB6
:100910000EFB1C3345EA034508FB0CF3AB4207D939
:100920007D190CF1FF3002D2AB4200F2E780844621
:10093000ED1AA3B2B5FBFEF00EFB105543EA0544D9
:1009400008FB00F8A04507D93C1900F1FF3302D29B
:10095000A04500F2D7801846A4EB080440EA0C40FA
:10096000C0E78B4208D9002E00F0AF800021C6E915
:1009700000050846BDE8F087B3FA83F100294BD1A2
:10098000AB4202D3824200F2B780841A65EB0303C4
:1009900001209E46002EAAD0C6E9004EA7E7C2F16C
:1009A000200C01FA02F3974020FA0CF04FEA174EA0
:1009B00021FA0CFC1843BCFBFEF1050C0EFB11CC1C
:1009C0001FFA87F845EA0C4501FB08F3AB4204FA2D
:1009D00002F409D97D1901F1FF3C80F08B80AB4214
:1009E00040F2888002393D44EB1A85B2B3FBFEF039
:1009F0000EFB103345EA034500FB08F3AB4207D971
:100A00007D1900F1FF3C71D2AB426FD902383D44F1
:100A1000EB1A40EA014178E7C1F1200C8B4022FA41
:100A20000CF71F4320FA0CF405FA01F34FEA174EB6
:100A300025FA0CF51C43230CB5FBFEF91FFA87F8C9
:100A40000EFB195543EA054509FB08FAAA4502FAC7
:100A500001F200FA01F308D97D1909F1FF3047D2FC
:100A6000AA4545D9A9F102093D44A5EB0A05A4B25E
:100A7000B5FBFEF00EFB105544EA054400FB08F8F8
:100A8000A04507D93C1900F1FF352DD2A0452BD93F
:100A900002383C4440EA0940A4EB0804A0FB028968
:100AA0004C45C6464D4619D316D05EB1B3EB0E0287
:100AB00064EB050404FA0CFCCA404CEA0202CC4088
:100AC000C6E900240021BDE8F087314630460EE734
:100AD000AC46EDE6184601E74345E6D2B8EB020E18
:100AE00069EB07050138E0E72846D3E760468FE762
:100AF0008146BAE7614677E708464BE7ACF1020C5E
:100B00003D4415E702383C4426E700BF704700BF6C
:100B1000F0B40346134A43F8042B012200254FF496
:100B2000807700F5157600F10C044360C16400F590
:100B3000AA73027200F1300100F154024561C0E96C
:100B40000344856287630664C0E90822F0BCC0E9FB
:100B50001133C0E90C11C06200658261C361C363D7
:100B6000704700BFB08E00080000000000000000C9
:100B7000104A136923F4706313610F4B01289A68BC
:100B800010D142F480629A60DA6822F48062DA60FE
:100B9000094B1A6842F480621A605A6822F4806233
:100BA0005A60704722F480629A60DA6842F4806288
:100BB000DA60EDE700380140003C01400000000031
:100BC000224A02EB80032DE9F043D968D2F8549011
:100BD00080464869D0E90037BB4228D908F10104B2
:100BE000B1F810E009EB043409EB481CDE1BDCF81B
:100BF0001829764528BF764693B2B6EB830F21D8E5
:100C00008568042E2B6823600AD9711F21F0030127
:100C1000043129442B4653F8042F22609942FAD11B
:100C2000036837443544BB42C0E90175DED8D9F8C2
:100C30003438012000FA08F823EA0803C9F83438E8
:100C4000BDE8F0830020BDE8F08300BFFC18002061
:100C500030B4202383F311880B4CD4E9003549428A
:100C6000281A0840821A9A4207D3954205D3626037
:100C7000002383F3118830BC70470020002383F3E6
:100C8000118830BC704700BF781B002000000000B6
:100C9000024AD36843F0C003D3607047001001409C
:100CA000024AD36843F0C003D36070470044004059
:100CB000024AD36843F0C003D36070470014014078
:100CC000202383F31188064A1378012B03D8054BA0
:100CD0004FF4005119830023137083F31188704778
:100CE000DC190020000802400000000000000000A5
:100CF00008B5202383F31188084B1B7853B10120DA
:100D0000FFF736FF064A074B13650023536583F34D
:100D1000118808BD0220FFF72BFFF3E78D1E00208E
:100D20005C190020B1120008000000000000000063
:100D30001E4B012130B42022197082F311881C4807
:100D40004468C26864680925D562516103250021A1
:100D50005162057011611CB1D16841F00101D1608F
:100D600085211160002282F31188124902E01A786D
:100D7000012A02D10A699405F9D50E4902E01A78D0
:100D8000012A02D10A699205F9D4202383F311883C
:100D9000C3680022022101701A601A61D96821F02B
:100DA000FF01D96082F3118830BC7047880C0020A5
:100DB0008C0C002000040240000000000000000035
:100DC000014B00221A707047880C002000000000C0
:100DD00090F84420034602F01F00012803D193F845
:100DE00045100B291BD002F06002202A01D0002000
:100DF000704793F84520212A09D81F2AF7D90A4AB3
:100E00009A6307210022C3E90F1201207047222AAA
:100E1000EDD10022C3E90E221A640120704700229E
:100E2000C3E90E221A647047040800200000000085
:100E3000022906D0032906D00129074818BF00203F
:100E4000704706487047032A03D8054800EBC200E4
:100E500070470020704700BF088E0008B48D00085E
:100E6000908E00080000000000000000000000005C
:100E7000144BC35C03F00303012B04BF00F12003F8
:100E8000D8B2A0F1300218BF0346072A12D90A29A6
:100E900008D0102902D04FF0FF307047A0F1610256
:100EA000052A0AD938280BD0392814BF4FF0FF3053
:100EB00009207047D8B230387047D8B257387047D9
:100EC00008207047058F00080000000000000000A7
:100ED000202383F311880D4B5B6813F4006302D168
:100EE00083F311887047EFF30983203B4FF0807242
:100EF000DA6183F30988064A116852698968926841
:100F000091428CBF034A044A9A61704700ED00E0A9
:100F1000E019002003030008060300080000000099
:100F2000084A10B4D2E900344942201A08409842D5
:100F300004D3844202D310BC50607047002010BC20
:100F4000704700BF781B0020000000000000000078
:100F50000E4A0F4B52681B6F816830B4D31AD0E928
:100F60000445C2685B1A01324168C260E418026835
:100F7000836045F100058B4288BF43609342C0E91E
:100F8000044538BF036030BC704700BF001000E06C
:100F9000E019002000000000000000000000000038
:100FA000014B5B6883607047001000E000000000A8
:100FB000836841681A4AF0B4D0E90475022643F800
:100FC0002C1C0124002143E91B750568C06803F847
:100FD000271C03F8286C03F8264C43F83C2C1469B2
:100FE00043F8400C43F80C0C43F8305CA3F16C0060
:100FF0000C4D43F8340C43E90511A3F1480043F8C4
:101000004C5CA3F11C01A3F1200543F8384CE060CF
:10101000106143E9085143F8181CF0BC704700BF49
:10102000E0190020F10200080000000000000000AC
:10103000202383F3118890F82030072B0DD8DFE8A8
:1010400003F0270C0C2308040C08426A9368013350
:101050009360D0E9003213605A6010B400224FF060
:10106000FF3481680C4B446280F820201B689A682A
:101070008A42FBD25A680021C0E9003210605860F1
:1010800081F3118810BC7047436A00221A60E4E7BC
:10109000002383F311887047E0190020000000004E
:1010A00000228168064B80F820201B689A688A42DB
:1010B000FBD25A68C0E9003210605860704700BF28
:1010C000E019002000000000000000000000000007
:1010D00038B50446006884420AD06FF00105036801
:1010E00023605C604562FFF7DBFF2068A042F6D119
:1010F00038BD00BF0000000000000000000000003C
:1011000003460068834206D002681A6000215360DB
:101110004162FFF7C5BF70470000000000000000FB
:10112000F8B50468A04221D007460D46002604E029
:101130000B2A1CD02468A74218D0E3682B43E36035
:1011400015B123691D42F5D0D4E90103416B90F834
:1011500020200B430A2A4363EAD1426A1342E9D0B2
:101160004662FFF79DFF2468A742E6D1F8BD426AB8
:1011700032EA0303DED1F3E70000000000000000C4
:101180000346006820B100221A604162FFF788BF61
:10119000704700BF000000000000000000000000D9
:1011A0001A4B9A69824230B40FD0D0E900210A600C
:1011B0000268183300249A425160C46003D08168E9
:1011C00093680B44936030BC70471846116840F830
:1011D000181F002481424860D46013D095688A6843
:1011E0000B4C5B6A15448D60626AD11A8D42EAD954
:1011F0009A1A2A44012A98BF8D1C054A2B4453632E
:1012000030BC7047024BDC60DDE700BFE019002016
:10121000000C004000000000000000000000000082
:10122000F0B41E4D1E4E2F46022957F8184F38BFF6
:101230000221BC42C0E90323736A22D06A6A9B1A66
:10124000C91816D2A3688B4203D917E02468C91ABB
:10125000A3688B42FAD36368C0E9004318606060FA
:101260008160A3684FF0FF32591AA1602A62F0BC76
:101270007047A2682468891AA368EAE70A4472637F
:10128000E7E76B62CF1800220223C5E90600C0E938
:101290000044816077633261F360E8E7E019002081
:1012A000000C0040000000000000000000000000F2
:1012B00038B5274B1A78002A42D026490A780020F0
:1012C00001320A701870202383F31188224B996829
:1012D000DA6841EA0200400516D52048204C006932
:1012E000186820F480601860586820F480605860A6
:1012F000002521F4806122F480624FF480609960BF
:101300002565DA60656558611648C3680BB1FFF75B
:1013100047FF1448144A00234FF4FA71FFF780FF87
:101320001248C3680BB1FFF73BFF114A0F48002377
:1013300040F6B831FFF774FF002383F3118838BDFE
:101340000C4A01204FF4005118705183BBE700BFD5
:101350008D1E0020DC190020003C014000380140B7
:101360005C190020C05F0020F10C0008D45F002051
:10137000C10C00080008024000000000000000004E
:10138000034A516853685B1A9842FBD8704700BF04
:10139000001000E00000000000000000000000005D
:1013A000FEE700BF00000000000000000000000099
:1013B0002DE9F047D0F85462D6F80C903368DA057E
:1013C00005469CB275D4202383F3118814F02F0FA7
:1013D00045D02F1D05F10C0808E0A006D6F804A0A2
:1013E0001ED4336813F02F0F9CB238D02307F4D0EB
:1013F00014F0080F0CBF00218021E00748BF41F026
:101400002001A20748BF41F04001630748BF41F4F3
:1014100080713846FFF784FEA006D6F804A0E0D518
:101420006B6995F858429BB3D5E90832934237D09F
:101430006A69591C013204EA0A0A6A61296283F85E
:1014400000A0D5E907329A4201D3AB692B6240462E
:10145000FFF756FE336813F02F0F9CB2C6D100235E
:1014600083F3118819F0800F01D0220630D419F0CF
:10147000400F0BD0630609D5202383F31188D5E9EB
:1014800011239A423FD0002383F31188BDE8F087EF
:1014900004213846FFF744FED5E908329342C7D10C
:1014A0006A69002AC4D04FF480613846FFF738FEDD
:1014B00097E7202383F311884FF400710430FFF77E
:1014C0002FFE6FF480733360002383F311887AE773
:1014D000202383F31188D5E911239A4220D0AA6BE7
:1014E000296C581C0132AA63A86488421F7801D372
:1014F000EB6BAB6405F13000FFF702FE7760002371
:1015000083F31188B3E7AB6B002BBCD0281D1021EF
:10151000FFF706FE4FF6BF7309EA0303F360B2E775
:10152000AA6B002ADBD00821281DFFF7F9FD4FF632
:101530007F7309EA0303F360E1E700BF00000000E6
:10154000836970B51A69DC681440E2B2D243A60719
:1015500005461A6103D543681B6903B198476007C4
:1015600004D56B689B690BB128469847210704D5C1
:101570006B681B6A0BB128469847E20604D56B6876
:101580009B6A0BB128469847E30706D56B689B68B2
:101590001BB12846BDE87040184770BD0000000030
:1015A00011F00C0F38B54CD10D4641680B7804464C
:1015B000002B30D1456A2A68136823F01F0313609B
:1015C0001368D807FCD46A7A206A6D683D2393407B
:1015D00002682B60136823F01F0313601368DB0796
:1015E000FCD4457A4A6841683D23AB400B606AB33E
:1015F00004232370204690472378042B26D02023F1
:1016000083F31188002104F10800FFF7B9FD0023DE
:1016100083F3118838BDEB0603D54B68002BF9D056
:101620009847AD06F6D563685B68002BF2D00422BC
:101630002270204698472378042BEBD10323237094
:1016400038BD72B6034B044A9A62FEE70223237048
:10165000D5E700BFE0190020488300080000000023
:1016600011F00C0F00D1704772B6024B024A9A6219
:10167000FEE700BFE01900204883000800000000DA
:1016800000EB810330B4DC6862691368D360F3B99E
:10169000426D02EB41134FF40020C3F81009236898
:1016A00003F00303012B2AD008B202EB4010012300
:1016B000D0F8004944F00444C0F80049D2F8340896
:1016C00003FA01F1014330BCC2F83418704719B96C
:1016D000402B84BF40231360258A426D681E184446
:1016E000B0FBF5F002EB411543EAC04343F0005371
:1016F000C5F81039236803F00303012BD4D1D2F8C5
:10170000083813F4807F02EB411308B2D3F8004984
:1017100014BF44F0805444F00054C3F80049C4E7B7
:10172000204AF8B5566D06EB40130446D3F8085925
:10173000C3F80859E80703D5D6F81038D90708D4F4
:101740002B0605D5D6F834280123A340134215D122
:10175000F8BD02EB8403D86843691F68D9688F42DB
:1017600011D3138987680121A14023EA0103138162
:10177000002FE5D010462146B847E1E72046BDE8F6
:10178000F840FFF71DBAC91B0027C3E90017202343
:1017900083F3118810462146FFF772FF87F3118803
:1017A000CEE700BFFC180020000000000000000091
:1017B00000EB810330B4DD68AB691C68DC6019B9EB
:1017C000402C84BF40241C606B8A406D2D685A1EDB
:1017D0002244B2FBF3F202FB03F3033323F00303CF
:1017E00043EAC24300EB411405F0030243F0C04357
:1017F000012AC4F8103B0AD009B200EB411130BCF9
:10180000D1F8003B43F00443C1F8003B7047D0F8E7
:10181000083800EB411213F4807FD2F8003B14BF6C
:1018200043F0805343F0005309B2C2F8003BE4E7B1
:101830002DE9F041244F7E6D06EB40130446D3F8AA
:10184000085BC3F8085B280703D5D6F814381907D6
:1018500031D4EA072DD5D6F81438DB0729D507EBA4
:101860008403D9685CB98A69488A5568B5FBF0F386
:1018700000FB13531BB91068D36898420DD37B89C2
:10188000CD680122A24023EA02037B818DB121466B
:101890002B460D48BDE8F04118471B1AC2E9003439
:1018A000202383F3118808482146FFF781FF84F342
:1018B0001188BDE8F08107EB84032146DB683846D8
:1018C0005B689847C5E700BFFC18002000000000D7
:1018D00011F00C0F15D1D0E90C100A68136823F031
:1018E0001F0310B413601368DB07FCD44C7A4A68FA
:1018F0003D23A3401360436810BC43F4007343606E
:10190000704772B6014B024A9A62FEE7E019002066
:1019100048830008000000000000000000000000F4
:1019200011F00C0F26D170B5C56A426B2B6819688F
:1019300021F01F0119601C6814F00104FBD16E7ABC
:1019400069683D23B3400B60536823F480535360B0
:10195000136823F480631360136843F40073136007
:10196000202383F311881C302146FFF709FC84F300
:10197000118870BD72B6024B024A9A62FEE700BF40
:10198000E01900204883000800000000000000006B
:101990002DE9F04F02F003084746C2F38006C2F378
:1019A000C1054FEAD21C00244FF00F0B4FF0010A83
:1019B00013E0D0F8009003EA09033B43072C0360CF
:1019C00041D8036A23EA020242EA0E02026249088F
:1019D00037D07600AD00BF000134CB07F7D54368A0
:1019E0000AFA04F223EA02033343436082684FF0A9
:1019F000030E63000EFA03F322EA03022A43826015
:101A0000D0F80CE004F007022EEA030E9200B8F1C1
:101A1000020FC0F80CE06FEA03030CFA02FE0BFAA7
:101A200002F2C6D1072C15D8D0F8209029EA02027C
:101A300042EA0E020262026813403B434908036017
:101A4000C7D1BDE8F08F436A23EA020242EA0E02E0
:101A50004262BCE7D0F8249029EA020242EA0E0270
:101A60004262E8E700000000000000000000000003
:101A7000F0B4304E044601253068A540054218BF39
:101A8000002001D0F0BC7047284306EBC40730604B
:101A9000294E7A600C2015F0FF0FBB6000FB04603C
:101AA00009D0264B1A6B42F400121A631A6D42F4E5
:101AB00000121A651B6D15F47F4F30D10C2303FB08
:101AC00004F3F258136823F01F031360136813F034
:101AD0000103FBD10C2505FB04643D26E57A677AFA
:101AE000D4F804C06C09A400BE4004F1604405F1C0
:101AF0006047CCF8006004F561440126090107F550
:101B0000614705F01F0506FA05F5C9B221261360E5
:101B1000566187F80013C4F880512560B2E7074B7F
:101B20001A6B42F480021A631A6D42F480021A653D
:101B30001B6DC3E7BC1B0020208B0008003802404F
:101B400038B590F834300446152B16D8DFE803F08A
:101B50001615151515151615151616161515151530
:101B6000151515150B2CC3689B695B682BB9036CA5
:101B700003B19847002384F8343038BD436D416881
:101B8000D3F800290D6842F40012C3F80029D3F8F5
:101B9000002B42F40012C3F8002B0DB10621A84718
:101BA000062384F8343038BD0B2380F834302023EA
:101BB00083F31188C36802895B69002542F0010242
:101BC00002812946C3E900559D60FFF759FD85F361
:101BD000118838BD00000000000000000000000077
:101BE00038B590F834300446152B21D8DFE803F0DF
:101BF0000B20202020200B202021314820202020D5
:101C0000202020200B0B436D4168D3F800290D687C
:101C100042F40012C3F80029D3F8002B42F400125A
:101C2000C3F8002B0DB10621A847062384F83430F1
:101C300038BD90F84B2090F84A30C16B43EA02233C
:101C4000994206D2C3681B8AB1FBF3F503FB151555
:101C5000EDB1142384F83430202383F31188E36832
:101C600062899B69002542F0010262812046C3E936
:101C700000559D602946FFF79BFD85F3118838BD0F
:101C8000036C03B19847002384F8343038BD202317
:101C900083F31188C36802895B6942F00102028103
:101CA0002946C3E900559D60FFF7EAFC85F31188DA
:101CB0000A2384F8343038BD000000000000000022
:101CC000F0B400EB81050789D5F80CC00125DCF8DC
:101CD00014608D403D4300270581C6E90037B2609E
:101CE000F0BCFFF7CDBC00BF00000000000000000A
:101CF000816D8368F0B40C68C465002203F00113A1
:101D00008F68446D8360C0E9042282614FF0FF3523
:101D100000E0324604EB42110B46D1F800090028DE
:101D200002F1010605DAD1F8000940F08040C1F85F
:101D30000009D1F8000B002805DAD1F8000B40F0BB
:101D40008040C1F8000BBA42C3F80859C3F8085BD9
:101D5000DFD14FF00113C4F81C38F0BC704700BF4E
:101D6000704700BF000000000000000000000000FD
:101D7000002070470000000000000000000000008C
:101D8000002070470000000000000000000000007C
:101D9000F8B5D0F88C140A681378042B02D1037AB2
:101DA000022B01D00120F8BD0C795589012303FADB
:101DB00004F42542F6D1D0E90746B44214D049795B
:101DC00002EB81030120DB6888409E690543231DE7
:101DD0004FF48077002455811046C6E90074B36043
:101DE000FFF7E6FC2046F8BD80690028E7D0D9E778
:101DF000406BFFF7CDBF00BF0000000000000000F7
:101E0000093138B550F8214094B1202383F311886B
:101E1000D4F88C241368527903EB8203DB689B6946
:101E20005D6835B92046FFF7B3FF002383F31188BF
:101E300038BD04216018FFF773F9E369616A1D601A
:101E4000A06AA26903448B42E36102F1010228BF48
:101E5000236BA26104F10C0028BFE361FFF750F986
:101E6000E0E700BF000000000000000000000000EC
:101E70000346D0E90420824203D050F8043B0B60B3
:101E80007047DB68002BF8D000207047000000008E
:101E900010B5446BD4F88C2413681978042982B0E7
:101EA00002D1217A022901D002B010BD11791A891C
:101EB00001238B401342F7D101A904F14400FFF73D
:101EC000D7FF0246D4F88C04019B01790068FFF724
:101ED000F7FEE9E70000000000000000000000003D
:101EE00010B5202382B083F311881E4CD4F88C24C3
:101EF00013681978042902D1217A022904D0002319
:101F000083F3118802B010BD11791A8901238B4027
:101F10001342F4D1D4E915329342F0D1226D002A54
:101F2000EDD0E26E002AEAD0043AD21AE7D01A6065
:101F3000D4E9171003448B42226D636524BFA36E5E
:101F40006365013A002301A907482265E366FFF7AC
:101F50008FFF0246D4F88C04019B01790068FFF7DB
:101F6000AFFECCE73C1400208014002000000000ED
:101F70002DE9F04100EB810382B09E69F6B1044681
:101F80000D46202383F3118800EB8107301D0821C3
:101F9000FFF7C6F8FB685B691B6893B906F1440854
:101FA000404601A9FFF764FF024620B3019B294682
:101FB0002046FFF785FE002383F3118802B0BDE8B9
:101FC000F081D6E91720B36D316D03449342B365B8
:101FD00001F1010128BFB36E316506F1440828BF45
:101FE000B3654046FFF78CF8404601A9FFF740FF74
:101FF00002460028DAD1FB685A691268002ADAD052
:102000001B8A013B1340D6D1294604F144022046E5
:10201000FFF756FECFE700BF000000000000000001
:10202000144B596930B48D6884680022AC42426216
:102030000CD880F820201B689A689442FBD95A6813
:1020400030BCC0E9003210605860704781F8202031
:102050001A4612689468A542FBD354684C60012567
:102060000A602160516080F8205030BC5861FEF752
:1020700037B900BFE0190020000000000000000098
:10208000084B59691A6810B481F82000106818606C
:102090000124436082F8204010BC5A611046FEF7CC
:1020A0001FB900BFE0190020000000000000000080
:1020B00070B52023054683F31188304B80685C6936
:1020C00040B3A2688368934207D290F820308260C0
:1020D000062B3AD0072B25D0ABB12B4603E09968ED
:1020E000A268914202D31B689D42F8D15A6806202B
:1020F000C4E9003214605C606562FFF7C1FF002331
:1021000083F3118870BDD0E9003213605A60FEF786
:10211000C7FFE2E7A36BC5E90243A563002383F38E
:10212000118870BDD0E90031466A0B6059603346B2
:1021300002E09968914202D31B689E42F9D15A6825
:10214000C0E9003210605860C7E7D0E90031466A44
:102150000B605960334602E09968914202D31B68D4
:102160009E42F9D15A68C0E9003210605860B068E8
:10217000A26883689A42A8D8AFE700BFE0190020A0
:1021800038B5104B5C69A36A606204F12805AB4264
:1021900007D01A68A2621846FEF782FFA36AAB4214
:1021A000F7D194F822303BB994F821309B0703D142
:1021B000D4E90332D3601A61BDE838400F20FFF73D
:1021C0005FBF00BFE0190020000000000000000019
:1021D00030B54B1C87B012D00C4D0D4A6B690446CC
:1021E00001A8FFF71DF82046FFF74AFF049B13B133
:1021F00001A8FEF7D5FF6B69586A07B030BD034DE3
:10220000FFF73EFF6B69586A07B030BDE019002048
:102210003110000800000000000000000000000075
:1022200061B1084A10B4526944680346C2E90034F7
:102230000420226010BC5A60FFF7CABF4FF0FF3085
:10224000704700BFE01900200000000000000000FF
:10225000F8B504460F461646202383F3118803E0A1
:10226000FFF7DEFF002818DBA56831462046002D69
:10227000F6D06269A368511C013B6161A3601770CD
:10228000D4E904329A4224BFE3686361E36903B18D
:102290009847002080F31188F8BD85F31188F8BDB8
:1022A0003030FFF7D5BF00BF000000000000000085
:1022B00030304FF0FF32FFF7CBBF00BF000000000F
:1022C00070B5202305460E4683F3118803E0FFF71F
:1022D000A7FF00281ADBAC6831462846002CF6D050
:1022E000A969AB6828694A1C013B8242AB60AA61BC
:1022F00028BFEB680C7828BFAB61EB690BB12846AF
:102300009847002383F31188204670BD84F3118819
:1023100070BD00BF000000000000000000000000D1
:102320000C30FFF7CDBF00BF000000000000000030
:102330000C304FF0FF31FFF7C3BF00BF00000000BB
:1023400038B504460D4605E0237A83B9FFF768FFE8
:1023500000280BDBE36829462046002BF4D02369D4
:10236000E1691A1D0B44C4E90A23002038BD6FF04F
:10237000010038BD00000000000000000000000067
:1023800070B520230D46044683F31188866AFEB19A
:102390003570D4E90A3201339342A36214D3E2695F
:1023A0002369A169043A1A60E069E26803448B4238
:1023B000236124BF636A2361013A236BE260002238
:1023C000A2620BB120469847002080F3118870BDAF
:1023D0001146FFF7B5FF08B9A66AD9E786F3118859
:1023E00070BD00BF00000000000000000000000001
:1023F0004430FFF7C5BF00BF000000000000000030
:1024000044304FF0FF32FFF7BBBF00BF00000000B9
:1024100038B504460D4605E0237A83B9FFF700FF7F
:1024200000280BDBE36829462046002BF4D06369C3
:102430001A6804331A44C4E90A32002038BD6FF028
:10244000010038BD00000000000000000000000096
:1024500070B52023044683F31188856AE5B115F829
:10246000016BE26AA562954211D3D4E90610636953
:10247000E26803448B42636124BF636A6361013A8B
:10248000236BE2600022A2620BB120469847002332
:1024900083F31188304670BDFFF7BAFF064608B9CE
:1024A000A56ADCE785F31188F4E700BF00000000AF
:1024B0000C30FFF7CDBF00BF00000000000000009F
:1024C0000C304FF0FF31FFF7C3BF00BF000000002A
:1024D000034A52690260034653620320FFF778BE45
:1024E000E0190020000000000000000000000000D3
:1024F0002DE9F0413C4EB0270025746B37848646A9
:102500008C46B56085F31188D6E90B1738680F68DB
:10251000B16A0160D6F824803449C0F80CE0C0F8F4
:1025200004C0C7F80080FA607B604F6A2A4620200A
:1025300001E082F3118880F31188A3699B0702D41C
:1025400023689D0524D54B6ADB1BB3F5FA7FF0D3D6
:10255000306B0268136823F01F0313601368DC07F5
:10256000FCD4F16A447A40680A683D23A3400360C2
:10257000136823F01F0313601368D807FCD4487A4C
:102580004A683D23834013604FF0FF30BDE8F0817F
:1025900063681748069943F400736360236843F443
:1025A00080732360FFF794FF0028EFD0346B22681C
:1025B000136823F01F0313601368D907FCD4F16A72
:1025C000657A64680A683D23AB402360136823F092
:1025D0001F0313601368DB07FCD44C7A4A683D2361
:1025E000A3401360BDE8F0819C0C0020000C00406B
:1025F000B80C0020000000000000000000000000F7
:102600002DE9F041194C15466268AB1C42F2107C72
:1026100082B052680CFB03F30646B3FBF2F30F469D
:10262000202282F31188032205334FF0000840F284
:10263000E7300021ECFB0301227000234FF47A7293
:10264000C4F80880FEF7EAF82B4600903A46304678
:102650000121FFF74DFF01300CBF0523022323703A
:1026600088F3118802B0BDE8F08100BF9C0C002007
:1026700000B583B0034602220DF1030001A98DF8D5
:102680000330FFF7BDFF9DF804309DF805009B0067
:1026900043EA901003B05DF804FB00BF00000000A7
:1026A00010B582B0044601A90DF1030037230222C0
:1026B0008DF80330FFF7A4FF9DF80430DB0823708A
:1026C0000DF1030101A80E2301228DF80430FFF75C
:1026D00097FF9DF8033003F01F030DF10301012262
:1026E00001A863700D238DF80430FFF789FF9DF872
:1026F000033003F00F03A3700220FFF7B9FF030AB2
:102700002071E3700820FFF7B3FF030AA071637123
:102710000120FFF7ADFF030A20720920E37102B028
:1027200010BD00BF0000000000000000000000001D
:10273000F0B5174C666842F2107285B001FB0223B7
:102740000D4607467168B3FBF1F3202181F3118830
:10275000032626700533002640F2E7300021E2FB15
:102760000301A6604FF47A720023FEF757F8334650
:102770000090294638460DF10F02FFF7B9FE0130EF
:102780000CBF05230223237086F3118805B0F0BD2A
:102790009C0C002000000000000000000000000071
:1027A000F0B52A4B4FF400425A8383B0202383F3C1
:1027B0001188274B1B7853B102F1804202F5C232D7
:1027C00013699905FCD5234A13699B05FCD41F495D
:1027D000204B4FF40040202208835A8300BF00BFE3
:1027E0000421598300BF1C480224448300BF048392
:1027F000198300BF002484F3118882F311881748DD
:10280000174FC66AD0E90823032101701268816A54
:102810001B680DF10705D56041F480610125556005
:102820001160DF605D601E601168294311601A68E5
:102830002A431A604FF0FF310830FFF749FE84F356
:1028400011889DF8070003B0F0BD00BF00080240EA
:10285000880C00200004024000000240CC18002038
:10286000548C000800000000000000000000000080
:102870000D490E4B10B54FF4004208240A835C83C7
:1028800000BF1C834A8300BF002807DD00230A83A2
:1028900000BF4A8300BF01338342F8D1FEF748FAF4
:1028A000BDE81040FFF77CBF00000240000402407A
:1028B00070B582B020248DF8040084F311881F487D
:1028C0001F4DC16AD0E908230326067012681B68F1
:1028D000866AD5600125556041F48061166001AEBD
:1028E000DE605D6019601168294311601A682A432F
:1028F0001A604FF0FF310830FFF7EAFD002383F341
:10290000118884F311880F4B1B783BB10E4A136971
:102910009905FCD50C4A13699B05FCD40A4B20226F
:102920005A8300BF00BF02225A8300BF00BF1A8330
:1029300000BF002383F3118802B070BDCC180020C3
:10294000401C0020880C0020000402400000000011
:1029500008B50146202383F311880820FFF738FCCF
:10296000002383F3118808BD000000000000000070
:102970000EB42DE9F04F036888B082461B6912AD92
:1029800007959847DAF800108146CC68C1B25046E6
:10299000A04719F1020F00F0FF81A846AB4CAC4DE7
:1029A00057464FF0000B2521C2466B5C13F0080020
:1029B00040F0D480252911D0494500F08180BA46E5
:1029C0005FFA89F9DAF8003049465B695046984762
:1029D000584608B0BDE8F04F03B070472378252B68
:1029E0000AD1B9F1250FEAD13B6838461B699847EF
:1029F000A61C617881466BE02A2B00F0C4815AF84E
:102A0000042B0192661CE95C4C0740F1CA8100244A
:102A1000A3F1300216F8013BE95C04EB840448079B
:102A200002EB4404F4D4002C08BF4FF0FF3403F051
:102A3000DF004C2800F0A28001F00301A1F10102A7
:102A4000B2FA82F25209CDE90262443B342B00F221
:102A50009C80DFE813F064019A009A009A009A00C3
:102A600039019A009A009A009A009A001E01A1006A
:102A70009A009A009A009A0003019A009A00A10015
:102A80009A009A009A009A009A009A009A009A0076
:102A90009A009A007D0164019A009A009A009A00B7
:102AA00039019A009A009A009A009A001E01A1002A
:102AB0009A009A004E009A0003019A009A00A10021
:102AC0003B6838461B6998472646814616F8011B25
:102AD00019F1020F00F0BE8000293FF470AF3446B8
:102AE00063E73B681B69984710F1020F81463FF48A
:102AF0006FAF15F8093013F008033846F1D1002CF8
:102B0000C8BF1E4640F39681019B38460BB103F8BF
:102B100006903B681B699847814619F1020FC1B2C4
:102B200006F1010638463FF453AF3B68DB6898472F
:102B3000B44200F0828115F809301807E4D5019BF2
:102B400033B14FF000029A55019B4FF000021A5525
:102B5000029E0BF1010B16F8011BBDE715F80930B9
:102B60001B0707D53B6838461B6998472B5C1E0737
:102B7000F8D48146264616F8011BA9E73246012300
:102B8000039312F8013B02925FE738685FFA89F11C
:102B90004369384698471BE715F80930180707D5E9
:102BA0003B6838461B6998472B5C1907F8D4814667
:102BB000B9F12B0F00F00881B9F12D0F00F06781FA
:102BC00001230493B9F1300F0DD1661E00F08C8102
:102BD0003B6838461B69984720F02003582B8146F4
:102BE00000F030813446002305934FF010085FFA5F
:102BF00089F941464846FEF73BF9411C034600F07F
:102C00007181023C00263A683846126906FB083694
:102C10009047631C81464146C0B204F1FF3404D0A2
:102C2000FEF726F9421C0346EDD1049B03B9764218
:102C3000019B2BB1039A002A40F0A980019B1E60E2
:102C4000029E0BF1010B16F8011B41E755830008AA
:102C5000058F0008BA464FF0FE09B3E615F80930B3
:102C60001E0707D53B6838461B6998472B5C1A0737
:102C7000F8D48146B9F12B0F00F02281B9F12D0F64
:102C800000F0BC8001260023CDE904634FF00A0860
:102C9000ADE715F80930190707D53B6838461B69B9
:102CA00098472B5C1B07F8D48146B9F12B0F00F035
:102CB0001081B9F12D0F00F0AF8001200023CDE984
:102CC00004034FF0080892E715F809301A0707D5F2
:102CD0003B6838461B6998472B5C1B07F8D4814634
:102CE000B9F12B0F65D0B9F12D0F00F0C58001238C
:102CF0000493B9F1300F57D1661E00F0F5803B68A0
:102D000038461B69984720F02003582B814600F075
:102D1000A6800123344605934FF0080867E715F8AD
:102D200009301B0707D53B6838461B6998472B5C61
:102D30001E07F8D48146B9F12B0F00F0B380B9F12A
:102D40002D0F4CD00123CDE904334FF00A084EE794
:102D5000002C7FF7FDAE019BB8461C441E461F4663
:102D600040460FB186F80090D8F800301B699847AC
:102D700010F1020F814606F101063FF429AEB4427C
:102D8000EED14746E4E663780190A61C3BE6059A3F
:102D9000002A3FF453AF52E74FF0FE094FF0000B0B
:102DA00010E64FF0FF3442E6012305934FF00A0886
:102DB0001DE7013C3FF40CAE3B6838461B69984761
:102DC00001238146049394E7013C3FF401AE3B6844
:102DD00038461B699847012381460493F2E6013C7B
:102DE0003FF4F6AD3B6838461B699847012381469E
:102DF0000020CDE904034FF00A08F8E6013C3FF457
:102E0000E7AD3B6838461B69984700230493814629
:102E100005934FF00A08EAE6013C3FF4D9AD3B6860
:102E200038461B69984700230493814605934FF069
:102E30000808DCE6611C3FF48BAE019B002B7FF49D
:102E400083AE85E6023C3FF4C3AD3B6838461B6960
:102E500098470023814605934FF01008C7E6023CCF
:102E60003FF4B6AD3B6838461B699847012381465D
:102E700005934FF01008BAE6013C3FF4A9AD3B685A
:102E800038461B69984700238146049331E7013C8B
:102E90003FF49EAD3B6838461B6998470023814646
:102EA00004938FE6013C3FF493AD3B6838461B69C1
:102EB000984701230493814605934FF00A0896E64C
:102EC000013C3FF485AD3B6838461B699847814615
:102ED000D8E6013C3FF47CAD3B6838461B69984717
:102EE0008146EAE6BA466DE50BF1010B70E500BFDD
:102EF0000EB42DE9F04F86B00FAB53F8044B02939C
:102F0000254615F8011B002900F03B82074699462B
:102F10004FF000080CE03B683846DB6808F1010818
:102F20002C469847254615F8011B002900F0BE8065
:102F30002529F0D163782D2B04BFA51C01202B7807
:102F400018BF00202B2B03BF6B784FF0010E754488
:102F50004FF0000E302B05BF1E466B782026013542
:102F60002A2B40F0AC8059F8041B6B78AC1C2E2B3C
:102F700000F03081002203F0DF054C2D00F0B2801C
:102F8000A3F1440CBCF1340F00F29881DFE81CF08F
:102F90005E0196019601960196015E0196019601E9
:102FA0009601960196019A013500960196019601C7
:102FB00096019400960196013500960196019601BE
:102FC00096019601960196019601960196014D0192
:102FD0005E0196019601960196015E0196019601A9
:102FE0009601960196019A013500960196012D01F0
:102FF000960194009601960135004FF0100E59F895
:10300000045B0DF1170300E06346AA46B5FBFEF52D
:103010000EFB15AB0BF13002392AC8BF0BF137029A
:10302000D2B2F24503F1FF3C03F8012CECD20DF1D2
:103030000C0A0DF11705A5EB0C05D6460DF1170C82
:1030400001E013F8012B0EF8012B6345F9D1491B60
:10305000013D21EAE17B20B90029CBF1000B00F30F
:103060004581002D0FDB6B1C534401941C463A68CC
:103070001AF8011BD26838469047A245F7D108F1EB
:103080000108019CA844BBF1000F3FF44BAF5D4623
:103090003B683146DB6838469847013DF8D1254604
:1030A000D84415F8011B00297FF442AF404606B012
:1030B000BDE8F04F03B070474FF00A0E9FE76C1C5D
:1030C000002BF3D00021A3F13002D2B2092A01EB88
:1030D00081053FF64CAF14F8013B02EB4501002B94
:1030E000F1D1E3E714F8013B002BDFD0A3F1440555
:1030F000342D00F2E3800FF2080C5CF825F000BFDD
:103100004D320008BD320008BD320008BD32000853
:10311000BD3200084D320008BD320008BD32000843
:10312000BD320008BD320008BD320008C5320008BB
:10313000FB2F0008BD320008BD320008BD32000878
:10314000BD320008B9300008BD320008BD320008A9
:10315000FB2F0008BD320008BD320008BD32000858
:10316000BD320008BD320008BD320008BD32000883
:10317000BD320008BD320008BD3200082B32000805
:103180004D320008BD320008BD320008BD320008D3
:10319000BD3200084D320008BD320008BD320008C3
:1031A000BD320008BD320008BD320008C53200083B
:1031B000FB2F0008BD320008BD320008EB310008CB
:1031C000BD320008B9300008BD320008BD32000829
:1031D000FB2F00082378002B3FF468AF2A2B74D113
:1031E000637859F8042B0234C5E659F804ABBAF1F8
:1031F000000F00F0BC809AF80030002A40F0AA804E
:10320000002B00F0AB8047F6FE72554601E0D3423A
:1032100005D415F8016FAAEB0503002EF7D1A5EB35
:103220000A05491B2026013D13E759F8043B8DF898
:103230000C300139202621EAE17B18B90029CBF1B5
:10324000000B72DC00250DF10C0A0CE759F804CBD9
:10325000BCF1000F5FDBBEF1000F00F08E802B236E
:103260008DF80C300DF10D050DF10C0A05F10B0375
:1032700001931A46474BA3FB0CE3DB0803EB830BDC
:103280009E46ACEB4B033033E346DBB2BBF1090F98
:1032900002F8013DF446EDDC9E46019BA3EB020CD7
:1032A000AC44734601E012F8013F05F8013B654567
:1032B000F9D1A5EB0A05491B013DCAE68DF80C3092
:1032C0000139B8E74FF0080E99E601340022A3F166
:1032D0003005EDB2092D02EB820C3FF64CAE14F82E
:1032E000013B05EB4C02002BF1D1DFE6CDF804B039
:1032F0009AF800102D2921D03B683146DB6838460A
:1033000098471BF1010BF7D1019B002DA8EB030897
:10331000BFF6A9AE06E62D23CCF1000C8DF80C30DB
:103320000DF10D050DF10C0AA0E79DF80C10CDF87C
:1033300004B02D290DF10C0A0546DDD1302EDBD16C
:103340003A683846D26890470AF1010A08F1010844
:10335000013DD1E713B1013A7FF557AF21EAE17B97
:1033600018B90029CBF1000B0DDC20268BE6DFF825
:1033700028A0002A3FF447AFEDE70DF10C0A5546AF
:1033800074E7884692E6CDF804B020264FF0FF356A
:10339000AEE700BFCDCCCCCC5C83000800000000C1
:1033A0002DE98048A34DA44EDFF8B892DFF8B8822B
:1033B0004FF0000B8BB0DA46D5F88C341B681B78C5
:1033C000042B6AD12B689B481B6998472022C3B203
:1033D00082F311880021D8F8242081F311889442C7
:1033E00022D302F59C540AF1FF3A0834BAF10B0FCC
:1033F0001DD8DFE81AF0F9024E017A01A601CF01CB
:10340000FB012602C8006402F0007600DD022B6892
:1034100088481B6998472022C3B282F31188002193
:10342000D8F8242081F3118802F59C540834834A8B
:103430008349844833704FF0000A1FFA83FBC9F8B0
:1034400000A0FFF755FDD5F88C341B681B78042BC2
:1034500000F0B8824FF47A70FFF77AFAD5F88C341E
:103460001B681B78042B00F0AD824FF47A70FFF7D5
:103470006FFAD5F88C341B681B78042B00F0A282FD
:103480004FF47A70FFF764FAD5F88C341B681B7818
:10349000042B00F097824FF0010A4FF47A70FFF787
:1034A00057FA89E713466649674A6648FFF720FDE1
:1034B000D5F88C341B681B78042B40F0FF852B68F3
:1034C0005C481B6998472022C3B282F3118800210F
:1034D000D8F8242081F31188A242A5D802F59C5483
:1034E000083432789A4200F04F8558495148FFF726
:1034F000FFFC57495348FFF7FBFCD5F88C341B6899
:103500001B78042B83D04FF47A70FFF721FAD5F89B
:103510008C341B681B78042B3FF479AF4FF47A701E
:10352000FFF716FAD5F88C341B681B78042B3FF490
:103530006EAF4FF47A70FFF70BFAD5F88C341B6836
:103540001B78042B3FF463AF4FF0000AA5E7FFF7A9
:10355000CFFCD5F88C341B681B78042B40F04685D3
:103560002B6834481B6998472022C3B282F3118824
:103570000021D8F8242081F31188A2423FF654AFED
:1035800002F59C5408343278324F2D492D483B7057
:103590001A44BBF17F0F32702F4A40F2ED81FFF7E2
:1035A000A7FCD5F88C341B681B78042B40F01E83D5
:1035B0002B6820481B6998472022C3B282F31188E8
:1035C0000021D8F8242081F31188A2423FF62CAFC5
:1035D00002F59C5408344FF0200A2048D9F8002006
:1035E00007681F48317800EB020C01321944BA42D7
:1035F00010488CF80D30C9F80020317000F0B4810B
:10360000D5F88C341B681B78042B40F003832B689F
:103610001B699847C3B28AF311880021D8F8242087
:1036200081F31188A24202F59C543FF6FDAE0834A6
:10363000D3E700BF3C1400209C1B002064830008DB
:103640006C830008840F0020EC8300084884000885
:103650004C8400088C1E0020C4830008981B0020A6
:10366000AC5E0020841B0020000C00402B68AF489B
:103670001B6998472022C3B282F311880021D8F831
:10368000242081F31188A2423FF6CEAE02F59C546D
:103690000834A74A96F800C01168A648A64A0F4603
:1036A00007EB032EA24FA549C7F800E09C4486F81B
:1036B00000C0FFF71DFCD5F88C341B681B78042B69
:1036C00040F04F822B6899481B6998472022C3B26B
:1036D00082F311880021D8F8242081F31188A242B6
:1036E0003FF6A2AE02F59C540834914F96F800C004
:1036F0003A6892498F48174607EB030E8C4F904A61
:10370000C7F800E09C4486F800C0FFF7F1FBD5F84D
:103710008C341B681B78042B40F002822B68834892
:103720001B6998472022C3B282F311880021D8F880
:10373000242081F31188A2423FF676AE02F59C5414
:10374000083496F800C07F4F7F4A7C4979489C44F2
:1037500086F800C04FEA034CC7F800C0FFF7C8FB6B
:10376000D5F88C341B681B78042B40F01E822B6824
:103770006E481B6998472022C3B282F3118800214A
:10378000D8F8242081F31188A2423FF64DAE02F50D
:103790009C5408346B4F96F800C03A6867496548F6
:1037A000174607EB032E674F684AC7F800E09C44B2
:1037B00086F800C0FFF79CFBD5F88C341B681B789B
:1037C000042B40F089812B6858481B6998472022B8
:1037D000C3B282F311880021D8F8242081F3118824
:1037E000A2423FF621AE02F59C540834554F307882
:1037F0003A68D118ABF1810218443E2A3070396022
:10380000534A4E494B483FF6A2AEFFF771FBD5F83D
:103810008C341B681B78042B40F00A842B684348C7
:103820001B6998472022C3B282F311880021D8F87F
:10383000242081F31188A2423FF6F6AD02F59C5494
:103840000834327843491A440B703270002B00F070
:103850003A81414A1269B2F5005FC0F0FF80A2EBE5
:103860004332B2F5005FC0F0F9803C494FF400529A
:103870000A603B4A31492F48FFF73AFB374B394A38
:103880001B882E492B48FFF733FBD5F88C341B6877
:103890001B78042B40F0E5802B6824481B6998476F
:1038A0002022C3B282F311880021D8F8242081F3AA
:1038B0001188A2423FF6B8AD02F59C5408344FF08F
:1038C000200A244A24481278D9F8001096F800C03B
:1038D00002F0010200EB423E8E449C448EF8183008
:1038E0001E4B12481B6886F800C0013199424FEA0E
:1038F0004232C9F800103FF4D5ADD5F88C341B68BE
:103900001B78042B40F0C1802B681B699847C3B219
:103910008AF311880021D8F8242081F31188A2426B
:1039200002F59C543FF680AD0834CAE73C140020F1
:10393000BC5F0020840F0020888300086C8300088F
:1039400094830008981B0020A0830008AC83000823
:10395000B88300088C1E0020901E0020801B0020D1
:10396000CC830008DC830008C24BC3491B78C348E2
:10397000C34A03F001035B03FFF7BAFAD5F88C34AE
:103980001B681B78042B40F0C0812B68BD481B6965
:1039900098472022C3B282F311880021D8F824204E
:1039A00081F31188A2423FF63FAD02F59C540834E2
:1039B00032789A4200F0CE81B349B248FFF798FAC4
:1039C000B24997E52B68AF481B6998472022C3B2DC
:1039D00082F31188D8F824208AF311889442FFF4E6
:1039E00023AD02F59C54083496F800C0A84FA94AAC
:1039F000A149A2489C4486F800C04FEA034CC7F88E
:103A000000C0FFF775FAD5F88C341B681B78042BBF
:103A10003FF42CAE4FF47A70FEF79AFFD5F88C3451
:103A20001B681B78042B3FF421AE4FF47A70FEF72D
:103A30008FFFD5F88C341B681B78042B3FF416AE2F
:103A40004FF47A70FEF784FFD5F88C341B681B782E
:103A5000042B3FF40BAE4FF0020A1EE58E490A60BC
:103A600007E74FF47A70FEF773FFD5F88C341B68C4
:103A70001B78042B16D04FF47A70FEF769FFD5F847
:103A80008C341B681B78042B0CD04FF47A70FEF733
:103A90005FFFD5F88C341B681B78042B02D04FF0E5
:103AA000090AFAE42B6877481B6998472022C3B2B9
:103AB00082F311880021D8F8242081F311889442E0
:103AC000FFF4B2ACF8E6754A7149754812680968A6
:103AD0004360C0E90421BEE64FF47A70FEF738FF78
:103AE000D5F88C341B681B78042B00F0B1804FF4A0
:103AF0007A70FEF72DFFD5F88C341B681B78042BE9
:103B000000F0A6804FF47A70FEF722FFD5F88C34CF
:103B10001B681B78042B00F09B804FF0060ABCE466
:103B20004FF47A70FEF714FFD5F88C341B681B78BD
:103B3000042B7CD04FF47A70FEF70AFFD5F88C3452
:103B40001B681B78042B72D04FF47A70FEF700FFCD
:103B5000D5F88C341B681B78042B68D04FF0040A0E
:103B60009BE44FF47A70FEF7F3FED5F88C341B68B3
:103B70001B78042B00F0A7804FF47A70FEF7E8FE64
:103B8000D5F88C341B681B78042B00F09C804FF414
:103B90007A70FEF7DDFED5F88C341B681B78042B99
:103BA00000F091804FF0030A77E44FF47A70FEF74B
:103BB000CFFED5F88C341B681B78042B72D04FF4E1
:103BC0007A70FEF7C5FED5F88C341B681B78042B81
:103BD00068D04FF47A70FEF7BBFED5F88C341B68C2
:103BE0001B78042B5ED04FF0050A56E44FF47A7030
:103BF000FEF7AEFED5F88C341B681B78042B73D00F
:103C00004FF47A70FEF7A4FED5F88C341B681B784D
:103C1000042B69D04FF47A70FEF79AFED5F88C34F5
:103C20001B681B78042B5FD04FF00A0A35E42B6821
:103C300014481B6998472022C3B282F311880021DF
:103C4000D8F8242081F311889442FFF4EDAB75E598
:103C50002B680C481B6998472022C3B282F3118855
:103C60000021D8F8242081F311889442FFF4DCABC2
:103C7000B9E500BF8C1E00206C830008840F002073
:103C8000EC8300083C14002048840008E484000809
:103C9000BC5F002078830008801B0020981B002058
:103CA000901E00202B68AB481B6998472022C3B2A6
:103CB00082F311880021D8F8242081F311889442DE
:103CC000FFF4B2AB63E52B68A2481B69984720223A
:103CD000C3B282F311880021D8F8242081F311881F
:103CE0009442FFF4A1ABFDE42B689A481B69984706
:103CF0002022C3B282F311880021D8F8242081F356
:103D000011889442FFF490AB62E44FF47A70FEF7AE
:103D10001FFED5F88C341B681B78042B00F05581EE
:103D20004FF47A70FEF714FED5F88C341B681B78BC
:103D3000042B00F04A814FF47A70FEF709FED5F8A3
:103D40008C341B681B78042B00F03F814FF00C0A69
:103D5000FFF7A3BB804A81498148FFF7C9F8814B2F
:103D6000814893F800C0814B80F800B01A68804BFE
:103D700080491B680746774887F80CC0C7E90123CC
:103D8000FFF7B6F897F900203B78002A6BDB7A2B17
:103D90007FF6B3AB7C3B032B00F23C82DFE803F001
:103DA0004020025A744B5B688DF81E30C3F3074104
:103DB0001B0A8DF81D30002327468DF81C100DF1CD
:103DC0001D0A1C462A686348D2680C4490470DF1CE
:103DD0001F035345E4B200F0B9811AF8011BF1E763
:103DE0002B685C48DB68552198472B685948DB688D
:103DF000432198472B685748DB68332198472B6845
:103E00005448DB681E2198472B685248DB68002124
:103E100098472B68E921DB684E489847FFF76DBB50
:103E20005648431E0393FEF73BFC039B27464FF087
:103E3000000A1C462A6814F8011FD26845488A44C3
:103E400090474F4BA3425FFA8AFAF3D13C462B6866
:103E50005146E0E7444B4B495A684148FFF748F860
:103E60002B680021D7E7C02B00F06381C12B7FF4C2
:103E700044AB07A8FEF714FC3B4B9DF81D209B7B31
:103E80009A420AD003F01F030E22022106A88DF8E1
:103E900019308DF81820FEF74BFC334B9DF81E208F
:103EA000DB7B9A420AD003F00F030D22022106A801
:103EB0008DF819308DF81820FEF73AFC2A499DF844
:103EC0001F300A7C934200F086814B7C43EA022338
:103ED00099010222C3F387038DF81A1006A8032163
:103EE0008DF819308DF81820FEF722FC1E499DF838
:103EF00021308A7C934200F05881CB7C43EA022334
:103F000099010822C3F387038DF81A1006A803212C
:103F10008DF819308DF81820FEF70AFC12499DF82B
:103F200023300A7D934200F04E814B7D43EA022309
:103F300099010122C3F387038DF81A1006A8032103
:103F40008DF819308DF81820FEF7F2FB2B685921F7
:103F500061E700BF3C140020608400086C83000807
:103F6000840F00208C1E0020AC5E0020981B0020D7
:103F7000BC5F002044840008901E0020B95E002031
:103F8000C15E002070840008A54BA64893F800C0CD
:103F9000A54BA6491A68CDF800C00CF00103043304
:103FA00000EB430307465A808389428987F808C09B
:103FB0009F48FEF79DFF7B891BB1BB89002B40F01A
:103FC000B1809C499C48FFF796BA2B689A481B69B8
:103FD00098472022C3B282F311880021D8F8242008
:103FE00081F311889442FFF41FAADEE44FF47A7043
:103FF000FEF7AEFCD5F88C341B681B78042B39D047
:104000004FF47A70FEF7A4FCD5F88C341B681B784B
:10401000042B2FD04FF47A70FEF79AFCD5F88C342D
:104020001B681B78042B25D04FF0080AFFF735BA20
:104030004FF47A70FEF78CFCD5F88C341B681B7833
:10404000042B29D04FF47A70FEF782FCD5F88C341B
:104050001B681B78042B1FD04FF47A70FEF778FC96
:10406000D5F88C341B681B78042B15D04FF0070A49
:10407000FFF713BA2B6870481B6998472022C3B218
:1040800082F311880021D8F8242081F3118894420A
:10409000FFF4CAA9FFF774BA2B6867481B699847F1
:1040A0002022C3B282F311880021D8F8242081F3A2
:1040B00011889442FFF4B8A9FFF7C0BB4FF47A709F
:1040C000FEF746FCD5F88C341B681B78042B17D000
:1040D0004FF47A70FEF73CFCD5F88C341B681B78E3
:1040E000042B0DD04FF47A70FEF732FCD5F88C34E7
:1040F0001B681B78042B03D04FF00B0AFFF7CDB9D8
:104100002B684D481B6998472022C3B282F311885F
:104110000021D8F8242081F311889442FFF484A967
:10412000FFF7DCB945494448FEF7E2FE4449FFF792
:10413000E1B9444B5B7B012B63D0022B5CD0002B9D
:1041400051D041493A48FEF7D3FEFFE603943C467E
:10415000344F2A68B7F80AA0D26837484FEA1A23C2
:104160001946059390472A683348D2685FFA8AFA5D
:1041700051469047B989059B2868CAB292449A442F
:104180000AEB112AC3682C480492090A9847039A3B
:104190002B682948DB685FFA8AFA52449246049AEF
:1041A00011465FFA8AFA984751E6264B9DF822108D
:1041B000DB7C99427FF4A2AE22499DF823300A7D30
:1041C00093427FF4B2AE1F4B9DF824105B7D994261
:1041D0007FF4ACAEBAE61B4B9DF820105B7C994295
:1041E0007FF474AE82E619491148FEF781FE184A41
:1041F0004FF480635383A9E616490D48FEF778FE15
:10420000A4E615490A48FEF773FE114A4FF480638D
:1042100013839BE60B4B1B7B03B34FF0000A2AE092
:104220008C1E0020901E0020801B0020F8830008B8
:10423000840F0020448400083C14002020840008DF
:1042400024840008AC5E0020C88400088084000834
:1042500000040240B084000898840008164FB86833
:10426000FEF706FB7B682A68013B824601467B60BD
:104270001248D368984710494B685A1E4A60002B71
:104280003FF4E5AD0E4B48F200021A8300BF5A839B
:1042900000BF00BFFEF784FA2A680146D268824454
:1042A00006489047044B5A68511E59605FFA8AFAD3
:1042B000034B002AE7D1CAE5AC5E00203C14002085
:1042C00000000240000000000000000000000000AC
:1042D00038B51A4D0446294600231E22FEF708FE73
:1042E0001749204600231E22FEF702FE00231E224D
:1042F00029462046FEF7FCFD12492046FEF7F8FD50
:1043000011492046FEF7F4FD10492046FEF7F0FD66
:104310000F492046FEF7ECFD0E492046FEF7E8FD6A
:104320000D492046FEF7E4FD0C492046FEF7E0FD6E
:1043300020460B49BDE83840FEF7DABDF884000896
:1043400024850008508500087085000890850008C5
:10435000C0850008EC850008188600085086000813
:104360005489000800000000000000000000000068
:1043700038B50D460A490446FEF7BAFD012D05DDA4
:1043800020460849BDE83840FEF7B2BD0649204640
:10439000FEF7AEFD20460349BDE83840FEF7A8BD54
:1043A00084860008A88600089C860008000000009B
:1043B00001292DE9F041044612D02149FEF798FD6C
:1043C000204B21491A882046FEF792FD1F492046BE
:1043D000FEF78EFD20461E49BDE8F041FEF788BD80
:1043E00010681C4E1C4FDFF85C8003F0DBFBB268EA
:1043F000A8F8000083B202FB03F2642505FB02F279
:10440000A7FB020215492046520BFEF771FDB8F8D2
:104410000020B36803FB02F305FB03F5A7FB05359A
:104420006D0B202383F31188F368B26943F0010315
:10443000F3605563002383F31188BDE8F08100BF6A
:10444000B08600080C080020E4860008FC860008FE
:10445000308700080C0D00205917B7D15487000889
:10446000012938B50FD01C490446FEF741FD1B4B0E
:104470001B491A882046FEF73BFD20461949BDE836
:104480003840FEF735BD106803F08CFB134B202439
:10449000188080B284F31188134A936990600138C0
:1044A000D862002080F31188104B91681B88104D52
:1044B00001FB03F1642303FB01F3A5FB03135B0B77
:1044C00084F31188D168946941F00101D16063637C
:1044D00080F3118838BD00BF7487000800080020F1
:1044E00098870008B08700080C0D00200C080020F9
:1044F0005917B7D1000000000000000000000000C4
:104500002DE9F0430E46C1B0384914460546FEF782
:10451000EFFC032E06D03649284641B0BDE8F043F3
:10452000FEF7E6BC00221146206803F0C5FB00221E
:1045300011460746606803F0BFFB0022064611469D
:10454000A06803F0B9FBB7F5807F044647DC294932
:104550003B4632462846FEF7CBFC002FE94607DDF6
:10456000E0B24A4609EB070302F8010B9342FBD184
:10457000214C224B4FF40041082221835A8300BF73
:104580001A83618300BF002E07DD0022218300BF54
:10459000618300BF01329642F8D1FCF7C9FB99F85C
:1045A0000000FEF785F9012F12D0DFF84C804F4450
:1045B0000DF1010448F20006A8F8186000BFA8F841
:1045C0001A6000BF14F8010BFEF772F9BC42F3D178
:1045D0000B49284641B0BDE8F043FEF789BC0949C4
:1045E000284641B0BDE8F043FEF782BCE0870008F2
:1045F00008880008488800080000024000040240C3
:104600006C8800082C8800080000000000000000F2
:104610002DE9F0410E461D4914460546FEF768FC9B
:10462000022E05D028461A49BDE8F041FEF760BCCD
:1046300000221146206803F03FFB00221146064687
:104640006068144C03F038FB134B4FF40041082210
:104650002183C7B25A8300BF1A83618300BF002E33
:1046600007DD0023218300BF618300BF01339E4229
:10467000F8D1FCF75DFB3846FEF71AF933463A46A7
:1046800028460649BDE8F041FEF732BC74880008B0
:10469000908800080000024000040240AC88000836
:1046A00070B50D460E4916460446FEF721FC012D55
:1046B00005D020460B49BDE87040FEF719BC00222A
:1046C0001146306803F0F8FA0546FEF7D1F82A469D
:1046D000034605492046BDE87040FEF709BC00BF0F
:1046E000C8880008E4880008FC8800080000000072
:1046F000012902D00849FEF7FBBB134610B5002282
:1047000004461146186803F0D7FA044902462046C9
:10471000BDE81040FEF7ECBB1489000828890008AA
:1047200010B5114984B00446FEF7E2FB0F4920465C
:1047300001AAFEF71DF9012805D00D492046FEF714
:10474000D7FB04B010BD0022114601A803F0B4FA53
:1047500001AA83B207492046FEF7CAFB064907486B
:10476000FEF7C6FB04B010BD408900085483000862
:1047700058890008708900089C8900083C140020B2
:104780002DE9F04F0E46C5B05F4915460446FEF7C9
:10479000AFFB022E06D05D49204645B0BDE8F04F84
:1047A000FEF7A6BB4FF48072002104A803F090FA34
:1047B00000221146686803F07FFA00228146114604
:1047C000286803F079FAB0F5807F054600F39580FC
:1047D0004A464F492046FEF78BFB4E494E4B4FF45D
:1047E000004208200A83588300BF18834A8300BF11
:1047F000B9F1000F07DD00230A8300BF4A8300BF21
:1048000001339945F8D1FCF793FA002D72D004AB2F
:10481000DFF8008103EB050A1E464FF40047FDF761
:10482000BFFF06F8010BA8F8187000BFA8F81A70AF
:1048300000BF5645F3D1002D5CDD9DF810203749AF
:104840008DF8082020460DF10F07FEF751FB0126D9
:104850007B19DFF8D8A0DFF8D8800193B34604AD08
:10486000F30615D0019B9D4244D002AB15F8012FF1
:104870002A4903F80B202046FEF73AFB731C5A071F
:10488000DEB21CD00BF1010BF3065FFA8BFBE9D112
:1048900004ABC3F101024A4421492A442046FEF7F1
:1048A00027FB019B9D4225D002AB15F8012F1B4928
:1048B00003F80B202046FEF71BFB0126E2E70DF173
:1048C000070B03E0FEF714FBBB450CD01BF8012FD0
:1048D000A2F120035F2B41462046F3D95146FEF753
:1048E00007FBBB45F2D10F492046FEF701FB4FF015
:1048F000000BB5E745B0BDE8F08F0B49204645B049
:10490000BDE8F04FFEF7F4BAA4890008CC8900088E
:10491000E88900080000024000040240FC89000809
:10492000088A0008548900082C8800086C84000854
:10493000048A0008000000000000000000000000E1
:104940002DE9F843536900EB81070C46FA600FFA32
:1049500081F823B10021196059609960D960936989
:1049600023B100221A605A609A60DA60FB68456DD4
:104970001E68D3F818C006F00306721E022A98BFFC
:10498000B60405EB44124FF0000198BF06F18056C3
:10499000C2F8101B8CBF454E06F500466101BCF104
:1049A000000F4BD0B3F812C004F1580252014CEA88
:1049B000060C45F802C004F1100ED5F81CC80122FF
:1049C00002FA0EF242EA0C02C5F81C286A1859696C
:1049D0004FF0000CC2F810C9002944D0998B1A8AF4
:1049E00001294FEA9203C26D88BF4B4304F13F0196
:1049F00003EB020C05EB810142EA0343A20142F002
:104A00002002C0F85CC04B602A612B699A06FCD476
:104A10001220FCF7B5FCFB681B8A04F1480243EA4C
:104A2000845352011E43AE500121D5F81C3801FABF
:104A300004F41C43C5F81C48BDE8F88305EB481294
:104A400004F11009D2F800EB2EF4004EC2F800EB8E
:104A5000D5F81C284FF0010C0CFA09FC22EA0C02D4
:104A6000C5F81C28B2E704F13F0205EB8202A3015E
:104A70000F49516043F020032B612B699B06FCD446
:104A800005EB48181220FCF77BFCD8F8003923F41A
:104A90000043C8F80039D5F81C38012101FA04F4A4
:104AA00023EA0404C5F81C48BDE8F8830080001020
:104AB00000040002000000000000000000000000F0
:104AC00030B583B005290FD8DFE801F0100E0310D0
:104AD0001029202383F311880378042B2FD0032B74
:104AE00059D0002383F3118803B030BD202383F312
:104AF00011882A4C237D1BB194F84C30002BF0D147
:104B000002212748FCF70CFB012526482575FCF7F8
:104B1000DFFA254884F84C50FCF7DAFAE1E7202365
:104B200083F311881D4C0121201DFCF7F9FA0023A5
:104B3000237584F84C3083F3118803B030BD174CD3
:104B40001A4A01900121FFF7FBFE02210198184A41
:104B5000FFF7F6FE0025236B236204F10C00E361EE
:104B6000C4E90D55A561FCF7B3FAD4E9192304F1A2
:104B70004400C4E915332265C4E91B552575FCF7CB
:104B8000A7FA201D012184F84C50FCF7C9FA2046F1
:104B9000FDF7FEF8A5E7FDF7ABF8A2E73C1400200F
:104BA0004014002048140020801400207C8C000851
:104BB000A08C0008000000000000000000000000C1
:104BC0002DE9F041D0E90246B4420746884653D069
:104BD000D0E900C0234600211CF8035001352B44C6
:104BE0009842D8BF1B1AB34201F10101F4D1012A46
:104BF0003D693CD0A94253DBB44254D04B1E9D4288
:104C000054D0D7E900EC002001E09D4217D01EF8F7
:104C1000043001331C44A44500F10100D8BFA4EBCB
:104C20000C04C343B4420B44EFD11EF806405CB9F8
:104C3000012A35D101353D612046BDE8F081264687
:104C40001EF80640002CF3D0013540223D610021C2
:104C5000404603F03DF87B68A2199A4210DA3968A1
:104C60000136314440462246FBF750FBE4E7002D75
:104C700004DD023D3D61BDE70021B8E70024DBE72C
:104C80009B1B39685D1E013631442A464046FBF7BE
:104C90003DFB396808EB0500621BFBF737FBCBE7F0
:104CA0004FF0FF34C8E7D7F800E0BEE7D7F800E0E0
:104CB0002646BAE7000000000000000000000000E7
:104CC00070B590F83430044613B1002380F83430C6
:104CD00004EB81016268CB681B6A19685B68A36496
:104CE000616493686BB32046984750B3E36B94F8C4
:104CF000440094F84B1094F84A2042EA01229A4268
:104D00003CBFE2631346020600F1DF80002B00F097
:104D10008F80152384F83430202383F31188E368CF
:104D200062899B69D4E90E6142F00102002562812B
:104D3000204683E862002946FCF73AFD85F3118896
:104D400070BD94F8440010F060061CD194F8452022
:104D500000F07F0343EA022340F20232934200F064
:104D6000138144D8B3F5807F00F0258122D9B3F5B3
:104D7000817F00F02F81B3F5407F04D194F8463055
:104D8000012B00F0D280626DD2F80039616843F4E3
:104D90000013C2F80039D2F8003B0D6843F4001349
:104DA000C2F8003B15B106212046A847062384F827
:104DB000343070BD012B60D0022B50D194F94810D3
:104DC00094F84820002902F00F01B4BF483158314F
:104DD000626D490151580D04D6D589024CBF9C4AD9
:104DE0009C4AA26302210022C4E90F1281E7B3F5B5
:104DF000006F00F0C28047D9B3F5106F39D1237826
:104E0000042B00F09C8094F846304BB1626884F823
:104E10004F3004212170136813B1022120469847B6
:104E20000023C4E90E3394F844002364030665D4D8
:104E30000B2384F83430202383F31188E36822891C
:104E40005B69002542F0010222812046C3E900553A
:104E50009D602946FCF714FC85F3118870BD002B7A
:104E600091D1022204F14C012364C4E90E121346CD
:104E70003FE740F60242934285D1774BA36300227D
:104E80000223C4E90F3234E7B3F5A06F6BD0A3F56A
:104E9000C063012B3FF677AF94F84900616894F83E
:104EA00048304D6894F8462094F8471043EA0023B0
:104EB0002046A84700283FF466AFD0E9003294F8B6
:104EC00044002664C4E90E2313E7BBB1092384F828
:104ED0003430202383F31188E36822895B69D4E9A5
:104EE0000E6142F0010200252281204683E8620023
:104EF0002946FCF7C5FB85F3118870BD142384F89F
:104F00003430202383F31188E36862899B6900258C
:104F100042F0010262812046C3E900559D602946A6
:104F2000FCF746FC85F3118870BDB4F84C30A663DD
:104F300043F00203C4E90F66A4F84C3076E720235F
:104F400083F311882046FCF7D3FE86F311880321F2
:104F5000636884F84F6021701B68002B3FF453AFE7
:104F6000204698474FE7B4F84430B3F5A06F48D0D7
:104F70000023C4E90E33236458E704F14F020123F0
:104F8000C4E90E232664B4E694F84630002B7FF47F
:104F9000FAAE94F8483013F00F02E9D013F0800F06
:104FA000636D03EB421344D1D3F8002B42F400129B
:104FB000C3F8002BDCE794F84630012B7FF4E3AE16
:104FC000B4F84C30A66323F00203C4E90F66A4F8DA
:104FD0004C302BE794F84630002B7FF4D4AE94F895
:104FE000483013F00F02C3D013F0800F636D03EB52
:104FF000421325D1D3F8002B22F40012C3F8002B62
:10500000B6E794F84610626D84F84E10D2F8003876
:10501000656823F4FE632D6843EA0113C2F8003883
:1050200025B120460121A84794F8440003232370AA
:105030009EE7D3F8002942F40012C3F8002997E74D
:10504000D3F8002922F40012C3F8002990E700BF2A
:10505000E08C0008E08B0008008F000800000000D2
:105060002DE9F04F85B0CDE90232C7694FF0200934
:1050700089F31188A2B3DDF80CB004460E464FF058
:10508000000AA2689345D4E904208CBFA5685D4658
:10509000A2EB0008A84544D829D2A5EB0803424654
:1050A00031460193FBF732F906EB0801DDF8048085
:1050B000E0684246FBF72AF9A268E1684346CB184C
:1050C000521B6361A2600FB12046B8478AF3118872
:1050D000ABEB050B2E4489F31188BBF1000FD0D147
:1050E0000398002383F3118805B0BDE8F08F2A46AA
:1050F0003146FBF70BF9E2686261A268521BA260BD
:10510000002DE0D102992046FDF78AF80028B8D09A
:10511000039BA3EB0B00002383F3118805B0BDE8CC
:10512000F08F2A463146FBF7F1F862692A44626142
:10513000E3E700BF000000000000000000000000E6
:105140003030FFF78DBF00BF0000000000000000FE
:1051500030304FF0FF33FFF783BF00BF0000000087
:105160002DE9F04F85B0CDE90232C7694FF0200933
:1051700089F31188002A34D0DDF80CB004460E46BD
:105180004FF0000AA268A169934522698CBFA56807
:105190005D46A2EB0108A84544D829D2A5EB080337
:1051A000424630460193FBF7B1F806EB0800DDF804
:1051B0000480E1684246FBF7A9F8A268E16843462B
:1051C000CB18521BA361A2600FB12046B8478AF3E7
:1051D0001188ABEB050B2E4489F31188BBF1000F4E
:1051E000D0D10398002383F3118805B0BDE8F08F78
:1051F0002A463046FBF78AF8E268A261A268521B91
:10520000A260002DE0D102992046FDF709F80028A0
:10521000B8D0039BA3EB0B00002383F3118805B0E8
:10522000BDE8F08F2A463046FBF770F8A2692A44A1
:10523000A261E3E7000000000000000000000000A1
:105240000C30FFF78DBF00BF000000000000000021
:105250000C304FF0FF33FFF783BF00BF00000000AA
:105260002DE9F04F054683B00C46924699464FF023
:10527000200888F31188AB6A00263746002B41D0FE
:10528000E96AAAEB060BCA1A934528BF9346BBF1FD
:10529000400F40D92146184604F1400E0C684A6878
:1052A0008B68D1F80CC0C0F80CC010317145046097
:1052B0004260836000F11000F0D1AB6A40330C46CD
:1052C0004036AB62EA6A9A4213D8EA692B69A86948
:1052D000043A1A60E969EA68AF620B4483422B61C1
:1052E00024BF6B6A2B612B6B013AEA600BB1284635
:1052F000984787F3118856451AD288F31188AB6A0C
:10530000002BBDD1494628460193FDF719F8019BB2
:1053100060B9AB6AB4E7184621465A46FAF7F6FF79
:10532000AB6A5B445E445C44AB62CBE783F31188B9
:10533000304603B0BDE8F08F000000000000000020
:105340004430FFF78DBF00BF0000000000000000E8
:1053500044304FF0FF33FFF783BF00BF0000000071
:105360002DE9F04F83B005460F46934601934FF069
:10537000200989F31188AC6A0026B046002C3FD082
:10538000EB6AABEB06021B1B9A4228BF1A46402A67
:10539000924621463BD904F1400E3B460C684868D2
:1053A0008A68D1F80CC0C3F80CC0103171451C607C
:1053B00058609A6003F11003F0D1AB6A4033403774
:1053C0004036AB62EA6A9A4211D8D5E906216B6988
:1053D000E868C5F828800B4493426B6124BF6B6A70
:1053E0006B612B6B0138E8600BB12846984788F356
:1053F00011885E4516D289F31188AC6A002CBFD1A2
:1054000001992846FDF704F850B9AC6AB8E7384668
:10541000FAF77CFFAB6A534456445744AB62D1E77A
:1054200084F31188304603B0BDE8F08F000000001F
:105430000C30FFF795BF00BF000000000000000027
:105440000C304FF0FF33FFF78BBF00BF00000000B0
:1054500070B50D46B8B1044628601249204602F0E6
:105460000BFD215C222904EB000612D00D493046C9
:1054700002F0E6FC98B1421C00232A6003703378E6
:1054800023B1304670BD0C68002CE6D100263046B2
:1054900070BD0136304602F06BFC0028EBD128606D
:1054A000EDE700BF1C8A00080000000000000000BB
:1054B0002DE9F04FB44DD0F800A083686A69B34974
:1054C000A7B00446019040680690002091611870D2
:1054D000D4E90223CDE90E00AD4910905046CDE944
:1054E0000C23FDF705FDAB495046FDF701FD6B6947
:1054F00093F8213013F0040340F0958002930DF1EE
:10550000580BCDF800A0A4490098FDF7F1FC019BD1
:1055100000251C682F46D846236801229B680DF1A0
:10552000230120469847002846D09DF823101B29C8
:105530002AD05FB15B293DD035B1412900F01781F8
:10554000422900F0F78000252F46E5E708291DD005
:105550007F291BD00D2900F05381092977D00E290E
:1055600000F02A81102900F042811F29D4D90DF1C1
:1055700097039845D0D223682046DB6898479DF86A
:10558000233008F8013BC7E70127C5E7D845C3D05A
:1055900023680821DB682046984723682021DB68C0
:1055A0002046984723680821DB68204608F1FF3829
:1055B0009847B1E73D46AFE74FF47A70FDF7C8F979
:1055C00009A95846FFF744FF09A90546002011AC78
:1055D0000026FFF73DFF50B1042E31D044F8040BF4
:1055E00009A900200136FFF733FF0028F4D126ABCC
:1055F00003EB860343F8540C75B168492846FAF763
:1056000023FF002840F0A281002E00F05D81634A54
:1056100063490098FDF76CFC5B4B5B6993F82130A4
:105620005B077FF570AF202383F3118800215D486D
:10563000FBF776FD0020FCF7A3FD27B0BDE8F08F57
:1056400059490098FDF754FC00231593E4E70DF148
:105650009706B045BFF460AF504B88F8007093E8F0
:1056600003000DF1280A0A908DF82C105046594677
:1056700002F074FD019BD3F810905A68504509F16F
:105680000403039312BFCA46C9F800009A469AB1B0
:1056900013688BB1049405951C461546204659465F
:1056A00002F05CFD844208BF4AF8044B55F8084FED
:1056B000002CF3D1DDE90445029BCAF80030D9F88B
:1056C00000A0BAF1000F3FF427AFD9F80430A8EBDF
:1056D0000B010491002B00F062819AF800C0BCF12C
:1056E000000F00F0A481059407956446049DDDF841
:1056F0000CC0C64600215A5CA24208BF624605D1D2
:105700003BB152F8043F585CA042F9D0002B40F066
:10571000E880B64505D2A942A4BF0EF8014BD9F8DE
:1057200000A001311AF80140002C00F02481D9F8C2
:105730000430E0E7012259460CA8FFF741FA061EA3
:105740001ED18DF858600423462218492046FDF7E3
:10575000CFFB17492046FDF7CBFB002515495A46DC
:105760002046FDF7C5FB0BEB06082F46D4E60022CA
:1057700059460CA8FFF724FA061E7FF7E4AEE2E7CD
:10578000FFF6E1AEDFE700BFE0190020208A000845
:1057900054890008288A00083C8A0008748A000896
:1057A0007C8A0008A85E00205C8A0008448A000801
:1057B000508A0008548A0008012259460CA8FFF7B5
:1057C000FFF9061E78D18DF85870042346229A49B5
:1057D0002046FDF78DFB99492046FDF789FB984946
:1057E0005A4620460BEB0608FDF782FB94E63A4644
:1057F00059460CA8FFF7E4F9061E7FF78DAEE4E7E3
:1058000020469049FDF774FB0D9DA8EB0B046B1E21
:105810009C424DDA631E0BEB03021BF80310202998
:105820000AD1002C03DC43E0002B41D0013B12F8ED
:10583000011D20291C46F7D0002C39DD0F9E0C9845
:105840000E9BF21A991B01329E42A5EB020201F156
:10585000FF3109DBA24209DCC25C134401339D42E3
:10586000D8BF5B1B0E93ECE7A142F5DDAD1B013DFC
:105870000136A542304422DC2A465946FAF746FD55
:105880000C98621B0BEB0501FAF740FD0F9B0C9A7D
:10589000D4540F9A0D9B013414449C420F94A8BF1A
:1058A000E41A0C9B029AA8BF0F941A550023109378
:1058B000029B88F8003083E6FFF62EAE85E722468D
:1058C0005946FAF723FDE1E75F490098FDF710FB21
:1058D000069B002B40F08C805A490098FDF708FB8E
:1058E0009AE6059C079D0BEB010A029B8AF80030A3
:1058F00000293FF411AE019AD9F804301668002B44
:1059000046D050493046FDF7F3FAD9F8002072B17D
:10591000DFF84481DDF80C9001E009F1040941460B
:105920003046FDF7E5FAD9F80020002AF5D14549BF
:105930003046FDF7DDFA45493046FDF7D9FA4049D2
:105940005A463046FDF7D4FAD046E5E5069C002CD1
:1059500062D0206820B95FE054F8080F00285BD0BF
:105960002946FAF771FD0028F6D1636800983146A0
:1059700011AA984750E6A4460BF801C0019AD9F83D
:105980000430079D059C16680BEB010A002BB8D16B
:1059900042462B493046FDF7ABFAD046BCE55046AF
:1059A000CDF814A0FAF7CCFE0BEB000AD0458646E2
:1059B00001463FD2049B059AA3EB080C434603E043
:1059C000B34292D0D9F8002003EB0C00125C03F82C
:1059D000012B5345F4D1B24587D20EF1010E20239D
:1059E0008AF80030029B0BF80E300BEB0E0A82E7B0
:1059F000069C2268002A3FF46FAF154D009E294691
:105A00003046FDF775FA54F8082F002AF7D10D49F2
:105A10000098FDF76DFAFFE5009C09492A462046EB
:105A2000FDF766FA0B492046FDF762FAF4E58DF8BA
:105A300058C071E5C246D0E7448A0008508A000881
:105A4000548A000854890008888A00083C8A0008A3
:105A5000988A00089C8A0008588A00080000000004
:105A6000EFF30983203383F30988002383F311883C
:105A7000704700BF000000000000000000000000B0
:105A8000202383F31188FCF77BBB00BF00000000DC
:105A90000D4A10685169036830B401245A6000252A
:105AA00080F820408C681360506181F8205000E03D
:105AB0001B689A689442FBD35A6830BCC1E9003233
:105AC00011605960FAF70CBCE019002000000000DA
:105AD00070B51B4D01466E69202383F31188006861
:105AE000CB68B363884225D0F46B4BB11A689342FC
:105AF00003D09268944238BF1446DB68002BF5D17E
