:020000040000FA
:200000002008ACBF010010FF01004F7F00537F0054DE04A600BB0054B7005424037C0053B0
:200020009C0627030820ECFE00539C022709CE003EBDE07E7EE0E3DE08FFA0486E00000D11
:1300400000000000000A00154C4F4144204552524F5204C0
:20010000BD07EF7E07F3544F1E9999535445501E888852554E1E08584C4953541E087F4EB5
:2001200045571E07EF5041541E08D04C4F411E090A5341561E08E2474F5355421E0A5747EF
:200140004F544F1E0A794F4E1E0A385448454E1E0A265052494E541E0C6A4C45541E0DB9A8
:20016000494E5055541E0AC149461E0FDA524541441E0C14444154411E0DDB524553544F69
:2001800052451E0C61454E441E07F352455455524E1E0A9F44494D1E0E03464F521E0E8308
:2001A0004E4558541E0F4D52454D1E0DDB4150501E090D53544F501E0AB31E0DB9524E449E
:2001C000281E10B4544142281E0CAF494E54281E107643485224281E0CA2414253281E1065
:2001E000AB53474E281E109055534552281E106813140D0A1552454144591E2044454C1E90
:2002000010161E52452D454E5445521E4552524F5223201E20494E204C494E45201ECE0143
:20022000FB8D6F2007863F8D4DBD0350CE00B08D4A811827E9810D272A810F260C865F8DE0
:20024000358C00B027E90920E67D0085260A8C00F82605C6217E0825A7000820D286238DC4
:200260001520C9861EA700DFAE968526028D31397EE0BF7EE0C88D097EE1D1BDE1AC3620C5
:200280000836B680042B098DF2810326037E07F332398D05200A8DDE08A600811E26F739D9
:2002A0008D10CE02AA8DF28D1E390D0A15FFFFFFFF1EDF38DE3A0909DF3A369638A70096E3
:2002C00039A70132DE3839DE3AEE007C003B7C003B398DDEBD04489F2835DE3AEE00201168
:2002E0008DD0BD04489F283509090909090909EE00C60532A700085A26F93232A7009E2879
:2003000020C58DAE9F2835200A8DA7BD04489F28AE0034C605DE5D32A700085A26F932A778
:20032000016F009E28BD043E209DBD0273A60008BD02B29749DE480909A600811E26F908F6
:200340000808BD02998D097F0040BD02C77E0292368620BD0CF33239BD0741BD042A25260A
:2003600016A601BD042A2520BD0786BD02B2DE34BD04B1DF34BD02C7EE00AD00BD043EDE40
:200380003431313131390B39BD04322407812827030986200808BD02B2DE2A9C460D2709A0
:2003A000E100260CA10126080CDF63BD02C70A3936A6018128322705BD045720DEEE042037
:2003C000DABD02818D92280139362531DF34DE63812827150808DF63DE5D9663A700966496
:2003E000A7018D5A32DE340C39BD0DE124048D7720015F378D711733BD0E5620D9DF34DE04
:2004000063E700A70181282619C60AE702E703BD0DE125035FE703A602BD0E3E6D0327D229
:2004200020CC8D33DF46DE6320AA81412B0C815A2F0A81302B0481392F020D390C39DE5D42
:200440008D16DF5D39BD02B2DE5D8D0320F409090909090909093908080808080808089CD7
:20046000442B037E09F839BD0445A60681042F05C6017E08254F5F6D062F195849D75297AB
:200480005158495849DB529951EB008900BD054F6A0620E34D26D97E02C7BD0741BD03C1A1
:2004A0002504BD030939BD0B2525013981282611088D33BD0741812926020839C6137E08A6
:2004C00025C60620F98DD3BD0741812A260B08BD07418DC6BD06CE20EE812F2608088DBAA5
:2004E000BD065620E239BD0741812D2607088DD58D2A2007812B2601088DCABD0741812B9D
:200500002608088DC0BD05F920F1812D2608088DB4BD05F620E539BD10F8200CBD02B2DE31
:200520005D09092006BD02B2BD045A3637C6068699A000A700095A26F6BD04590DC6068603
:2005400000A90019A700095A26F533327E02C7368D08A600840FA70032393637DF57C60485
:20056000DE57BD045A680086050969004A26FA5A26EE3332393637DF57A60084F09753C6E3
:2005800004DE57640086050866004A26FA5A26F1DE57A6009B53A700333239BD043EBD041C
:2005A000457F0056BD0DA12419A6002A0B9756BD0525860FA400A700A60026088D916A0688
:2005C00020F66F066F05A60681652D1537C6058699A700085A26FA8664A701BD0451332007
:2005E000D1819D2E03BD0BDA7D00562703BD0525BD043E7E02C7BD051CBD0445BD0DA1249C
:2006000025BD05756C06BD0448BD0DA12411BD05756C06A606A10D27082DF38D0C20EF8DDC
:20062000088D1FBD059B7E02C7DE5D3637C607A60036A607A70032A707085A26F2DE5D33F5
:2006400032393637DE5DC6060CA605A90C19A705095A26F520E7BD02B2BD0BDABD0448BD2C
:200660000DA12505C6087E082560068D38BD0575BD0517860B5F5C8DC96D002AF95ABD05A0
:20068000178DBFBD0517BD0458BD0458BD055AEB05E705DE5DBD055A4A26DABD043E8D893E
:2006A0007C00502056BD05754F6D002A05BD05258680BD04486D002A05BD05258B80974A71
:2006C000A606AB0D28058678240140975039BD04458DD2DF59BD043EBD0629BD0BDA86094D
:2006E000DE59E600BD054F5D2706BD06425A20F7DE5DBD0458BD05754A26E5BD0448BD0620
:20070000299650A706BD059B7D004A2A03BD051C7E02C79632D633D0319230251EDE2E962E
:2007200030D631E001A200251426035D27100808A600811E26F9089C2A26E4DE2A0DDF2C9D
:2007400039A600812026030820F739BD0B252405C6077E0825DFACBD0448E60623F2C104B0
:200760002EEE8605104D2706BD05754A20F7A6019730A6029731DEAC0C39DE34A6000881C2
:200780001E26F9DF3639DFAC9F28CE01BC2012DFAC9F28CE010520098DA7DFAC9F28CE011B
:2007A000119EAC340832812027FBE600C11E27181127F1088C01BA27178C01ED2718E60054
:2007C000C11E26EF080820D9089FAC9F349E28399E28CE01BB397E0B15CE1200DF2EDF2ADA
:2007E000DF464F973297339740CE1075DF67398DE820658EA045CEA07FDF3A7F0085CE0103
:20080000F0BD02927F0040BD025DCE00B0BD0741BD04322505BD094620EA811E27E6BD0796
:2008200098EE006E008EA045BD02A0CE020CBD0299D720CE0020BD0270CE0214BD0299DE90
:200840005BEE00DF30CE0030963426046F006F01BD0273BD02A0209BDE2EDF3CDF36CE0019
:2008600075DF65CE1180DF5FDE2ADF464F0908A7009C442707A60027F509DF447E09FDCEA0
:200880000200BD0292DE34BD0741811E272BBD074BDF34BD071DDF24DE34BD0741811E271A
:2008A0000408BD074B4FC601DB3119D7319930199730BD071DDE242006DE2ADF2CDE2E9C6D
:2008C0002C270A9C2A2706BD032A0820F27E0DDBBD077ACE09FDFFA0468EA040BFA0087E14
:2008E000E0E3DE2E8612BD02768D458D438D4C9C2A270D8602BD0276BD032A088D3420EF68
:200900008603BD02768D347E07F3BD07D986119785BD0276BD027B810226F9BD027BBD0484
:200920003225F4CE00B0BD0231CE00B08D1820E48D005F4F4A26FD5A26F939C63286FFBD43
:2009400002765A26F839BD074BBD07132413DEACBD0741811E2721DE2C9C2A271C8D4820D3
:2009600017DEACBD0741811E260ADE2A9C2E27088D0F20048D0B8D2F398D2CDE30DF3220BC
:20098000F79F28DE2C9E2A08083434A6003408811E26F89F2A9F4635DE2C9C2A270632A7F7
:2009A000000820F69E2839DEACBD07989F28DF48DE2ADF20D6AFD0ADCB04DB2B8600992A1F
:2009C00091442234D72B972ADE2ADF4635DE209C2C270609A6003620F6DE2C9630A700085A
:2009E0009631A700089649A700089EAC3432A70008811E26F89E2839C6147E0825CE011272
:200A0000DF48CE1102DF5DDE36DF5B9C2A26037E07F37D003627F80808A60008DF3497495A
:200A2000DE48EE006E00DE34BD0741BD043224497E0FEFC6207E0825DE34BD04E6BD0467CF
:200A40005D27F05AD755BD0798EE008C0A79272C8C0A57270520DC7F0055DE36BD077ADED7
:200A6000658C00852605C6097E08259636A700089637A70008DF6520037F0055DE34BD0753
:200A80004B7A00552B0ABD0741812C26A60820EEBD07132405C6077E0825DF367E09FDDE84
:200AA000658C00752605C6107E08250909DF65EE0020E7CE01B3BD0299BD0350DE367E0855
:200AC0005096342605C6027E0825BD0225CE00B0DFACDE34BD03C12531DF34DEAC8D3B24FF
:200AE00012811E2706CE0203BD0292BD0225CE00B020EABD02E0BD0741812C260108DFAC7D
:200B0000DE34BD074108812C27CA097F0040811E26037E0DDBC6037E0825BD0741974A08C0
:200B2000812D2704097F004A4F974C974D974EBD0BDAD65DD726D65ED727C605BD0741BD7E
:200B40000432240B812E2605974D0820EF0D390908A600BD043225428030260F7D004C2630
:200B60000C7D004D27EA7A004B20E5974CBD02B2DE265D27167D004E2608AB00A700085A25
:200B8000200648484848A70073004EDF267D004D26037C004BBD02C720B67D004D26088113
:200BA0002E2604974D20A95F8145261408A600812D2709812B2601088D352004088D30506F
:200BC000964B1BBD02B2DE5DA706BD043EBD02C77D004A2703BD051C0C39BD02B237C607B2
:200BE000DE5D6F00085A26FA7F004B337E02C7A600BD04322405C6027E082580301608A6DC
:200C000000BD0432250D581758581B16A60080301B160839DE34BD03C1253FDF34DE3C9CD7
:200C20002E271CBD0B1A242209A600811E2705C6197E08259C2A27F7A60008811E26F5A625
:200C400002817926EF08080820D9BD02E008DF3CDE34BD074108812C27BC09811E26D02043
:200C600006DE2EDF3CDE347E0DDBDE34BD07418122261408A600088122274A811E2604C682
:200C800004201C8D6E20ED811E263509A60008813B2706BD02A07F004008DF367E09FD7E35
:200CA0000825DE34BD0467178D498EA0452016DE34BD0467D04023F2BD03505A26FA20EA44
:200CC000BD04E68D4BBD0741812C260E08964016C4F010270ABD035020F3813B2604087E37
:200CE0000C6C811E27A1C60620B5862E20054F840F8B3036BD02763237D6405CC130230C98
:200D0000C13F270481202604BD02A05FD7403339BD04454F974D6D0026088DD2BD02C77E65
:200D200003506D002A07862D8DC9BD0525A60681092E3181FF2D2D4D2E108DB28DAC974D7C
:200D40006D062A1C8DA86C0620F67D004D2611A6008D9CBD054F6A0626F58D4524BE8D8AE6
:200D60008D3020B8A6008D87BD054FBD0CEA8D228645BD0CF3E6065A2A06862DBD0CF350F5
:200D80004F4CC00A2AFB4ACB0ABD0CEF17BD0CEF208A8D0D240AA600BD0CEFBD054F20F230
:200DA00039BD02B2DE5D37C6066D002607085A26F80C20010D337E02C7DE34BD03C12405C1
:200DC000C6127E0825BD074108813D2704C60620F1BD04E6811E26F5BD02E0BD077A7E09F8
:200DE000FDBD02B2DE34BD04E608812C270B8129261ADF34BD02C70C39BD04B1DF34BD02D9
:200E0000C70D39DE34BD035829022505C6057E0825812826F7DF34DE63E700A7018DC224B4
:200E200005BD046720015FE703BD046717A7028D0DDE34BD074108812C27CA09209DBD0257
:200E4000B2E6038D11BD0459DF46BD02C79646A7049647A705394D2605C6157E0825A102AA
:200E600022F7E10322F336A60297515D270D5A270A9651BD04594A26FA20F332BD04594A6A
:200E800026FA39DE34BD03C124037E0DC0DF34DE5DBD044FA600E6019751D752CE11809603
:200EA00051D6529C5F271CA1002610E101260C9636D637A10E2604E10F2708BD0457BD04E6
:200EC0005720DC8C12002605C6107E08259651D652A70008E70008DF5FDE34BD07410881EA
:200EE0003D27037E0DCDBD04E6BD02E0BD078F8C010926EFDE34BD04E6DF34DE5FBD02D255
:200F0000BD0459DF5FDE34BD078F8C01102609DE34BD04E6DF34200EDE5DBD0BDA8601A743
:200F200000A706BD043EDE5FBD02D2BD0459DF5FDE34BD0741811E26AA08DF36DE5FD636F3
:200F4000E70008D637E70008DF5F7E09FDDE34BD03C124037E0DC0BD0741811E26D908DF55
:200F600036BD0448A600E601DE5F8C11802766DF5F8C1180275BBD044EBD044EA10026EF0D
:200F8000E10126EBDF61EE00BD0302DE61BD045786026D002A028B03974FBD0302BD05F905
:200FA000CE006FBD02D2BD043EDE610808BD0302BD10342407DE61DF5F7E09FDCE006FBD2C
:200FC0000302DE61EE00BD02D2DE61EE0EDF3620E8C6182002C6177E0825DE34BD04E68D28
:200FE00017974FBD04E6DF348D4A24037E0DDBDE34BD0798EE006E00BD074108813D260318
:20100000860039E600813C2613C13D260408860239C13E260408860339860139813E2705A6
:20102000C6067E0825C13D260408860539C13C27E4860439964F4848CE104EDF209B219787
:2010400021BD05F6BD0448A600DE204D6E00271620122B12200E2B0E20F4260A20062704A7
:201060002B022A020D390C39BD0448BD02B2DE67AD00BD02C739BD0448C609E0065D2F080F
:20108000BD05756C065A20F56F05BD059B7E0448BD0448A60027DE974ABD0BDA8601A70038
:2010A000A7067D004A2ACE7E052539BD04486D002AC320F3BD0448BD0DA12405BD043E20B1
:2010C00008CE00696C00BD0302CE10F0BD0302BD06CEBD0448BD054FE601A603A701E70346
:2010E0006F06BD059BCE00697E02D230202053540837254169004D42BD02B27E0458202056
:02A04800010015
:0400000500000000F7
:00000001FF
